{
  "_format": "hh-sol-artifact-1",
  "contractName": "MarioNFT",
  "sourceName": "contracts/MarioNFT.sol",
  "abi": [
    {
      "inputs": [
        {
          "internalType": "string",
          "name": "_baseURI",
          "type": "string"
        },
        {
          "internalType": "address",
          "name": "_abcTokenAddress",
          "type": "address"
        }
      ],
      "stateMutability": "nonpayable",
      "type": "constructor"
    },
    {
      "anonymous": false,
      "inputs": [
        {
          "indexed": true,
          "internalType": "address",
          "name": "account",
          "type": "address"
        },
        {
          "indexed": true,
          "internalType": "address",
          "name": "operator",
          "type": "address"
        },
        {
          "indexed": false,
          "internalType": "bool",
          "name": "approved",
          "type": "bool"
        }
      ],
      "name": "ApprovalForAll",
      "type": "event"
    },
    {
      "anonymous": false,
      "inputs": [
        {
          "indexed": true,
          "internalType": "address",
          "name": "_buyer",
          "type": "address"
        },
        {
          "indexed": true,
          "internalType": "uint256",
          "name": "orderId",
          "type": "uint256"
        },
        {
          "indexed": false,
          "internalType": "uint256",
          "name": "nftId",
          "type": "uint256"
        },
        {
          "indexed": false,
          "internalType": "uint256",
          "name": "price",
          "type": "uint256"
        }
      ],
      "name": "BuyNftEvent",
      "type": "event"
    },
    {
      "anonymous": false,
      "inputs": [
        {
          "indexed": false,
          "internalType": "address",
          "name": "_from",
          "type": "address"
        },
        {
          "indexed": true,
          "internalType": "address",
          "name": "_to",
          "type": "address"
        },
        {
          "indexed": false,
          "internalType": "uint256",
          "name": "nftId",
          "type": "uint256"
        },
        {
          "indexed": false,
          "internalType": "uint256",
          "name": "abcTokenAmount",
          "type": "uint256"
        }
      ],
      "name": "LottoEvent",
      "type": "event"
    },
    {
      "anonymous": false,
      "inputs": [
        {
          "indexed": true,
          "internalType": "address",
          "name": "previousOwner",
          "type": "address"
        },
        {
          "indexed": true,
          "internalType": "address",
          "name": "newOwner",
          "type": "address"
        }
      ],
      "name": "OwnershipTransferred",
      "type": "event"
    },
    {
      "anonymous": false,
      "inputs": [
        {
          "indexed": true,
          "internalType": "address",
          "name": "_seller",
          "type": "address"
        },
        {
          "indexed": true,
          "internalType": "uint256",
          "name": "orderId",
          "type": "uint256"
        },
        {
          "indexed": false,
          "internalType": "uint256",
          "name": "nftId",
          "type": "uint256"
        },
        {
          "indexed": false,
          "internalType": "uint256",
          "name": "price",
          "type": "uint256"
        }
      ],
      "name": "SellNftEvent",
      "type": "event"
    },
    {
      "anonymous": false,
      "inputs": [
        {
          "indexed": true,
          "internalType": "address",
          "name": "operator",
          "type": "address"
        },
        {
          "indexed": true,
          "internalType": "address",
          "name": "from",
          "type": "address"
        },
        {
          "indexed": true,
          "internalType": "address",
          "name": "to",
          "type": "address"
        },
        {
          "indexed": false,
          "internalType": "uint256[]",
          "name": "ids",
          "type": "uint256[]"
        },
        {
          "indexed": false,
          "internalType": "uint256[]",
          "name": "values",
          "type": "uint256[]"
        }
      ],
      "name": "TransferBatch",
      "type": "event"
    },
    {
      "anonymous": false,
      "inputs": [
        {
          "indexed": true,
          "internalType": "address",
          "name": "operator",
          "type": "address"
        },
        {
          "indexed": true,
          "internalType": "address",
          "name": "from",
          "type": "address"
        },
        {
          "indexed": true,
          "internalType": "address",
          "name": "to",
          "type": "address"
        },
        {
          "indexed": false,
          "internalType": "uint256",
          "name": "id",
          "type": "uint256"
        },
        {
          "indexed": false,
          "internalType": "uint256",
          "name": "value",
          "type": "uint256"
        }
      ],
      "name": "TransferSingle",
      "type": "event"
    },
    {
      "anonymous": false,
      "inputs": [
        {
          "indexed": false,
          "internalType": "string",
          "name": "value",
          "type": "string"
        },
        {
          "indexed": true,
          "internalType": "uint256",
          "name": "id",
          "type": "uint256"
        }
      ],
      "name": "URI",
      "type": "event"
    },
    {
      "inputs": [],
      "name": "abcTokenAddress",
      "outputs": [
        {
          "internalType": "address",
          "name": "",
          "type": "address"
        }
      ],
      "stateMutability": "view",
      "type": "function"
    },
    {
      "inputs": [
        {
          "internalType": "address",
          "name": "account",
          "type": "address"
        },
        {
          "internalType": "uint256",
          "name": "id",
          "type": "uint256"
        }
      ],
      "name": "balanceOf",
      "outputs": [
        {
          "internalType": "uint256",
          "name": "",
          "type": "uint256"
        }
      ],
      "stateMutability": "view",
      "type": "function"
    },
    {
      "inputs": [
        {
          "internalType": "address[]",
          "name": "accounts",
          "type": "address[]"
        },
        {
          "internalType": "uint256[]",
          "name": "ids",
          "type": "uint256[]"
        }
      ],
      "name": "balanceOfBatch",
      "outputs": [
        {
          "internalType": "uint256[]",
          "name": "",
          "type": "uint256[]"
        }
      ],
      "stateMutability": "view",
      "type": "function"
    },
    {
      "inputs": [],
      "name": "baseURI",
      "outputs": [
        {
          "internalType": "string",
          "name": "",
          "type": "string"
        }
      ],
      "stateMutability": "view",
      "type": "function"
    },
    {
      "inputs": [
        {
          "internalType": "uint256",
          "name": "orderId",
          "type": "uint256"
        },
        {
          "internalType": "uint256",
          "name": "price",
          "type": "uint256"
        }
      ],
      "name": "buyNft",
      "outputs": [],
      "stateMutability": "nonpayable",
      "type": "function"
    },
    {
      "inputs": [],
      "name": "checkSender",
      "outputs": [
        {
          "internalType": "address",
          "name": "",
          "type": "address"
        }
      ],
      "stateMutability": "view",
      "type": "function"
    },
    {
      "inputs": [],
      "name": "getAllNftCurrentAmount",
      "outputs": [
        {
          "internalType": "uint256[8]",
          "name": "",
          "type": "uint256[8]"
        }
      ],
      "stateMutability": "view",
      "type": "function"
    },
    {
      "inputs": [],
      "name": "getAllNftTotalAmount",
      "outputs": [
        {
          "internalType": "uint256[8]",
          "name": "",
          "type": "uint256[8]"
        }
      ],
      "stateMutability": "view",
      "type": "function"
    },
    {
      "inputs": [],
      "name": "getAllSellingNftList",
      "outputs": [
        {
          "components": [
            {
              "internalType": "address",
              "name": "owner",
              "type": "address"
            },
            {
              "internalType": "uint256",
              "name": "orderId",
              "type": "uint256"
            },
            {
              "internalType": "uint256",
              "name": "nftId",
              "type": "uint256"
            },
            {
              "internalType": "uint256",
              "name": "price",
              "type": "uint256"
            },
            {
              "internalType": "uint256",
              "name": "date",
              "type": "uint256"
            }
          ],
          "internalType": "struct MarioNFT.SellOrder[]",
          "name": "",
          "type": "tuple[]"
        }
      ],
      "stateMutability": "view",
      "type": "function"
    },
    {
      "inputs": [],
      "name": "getContractBalance",
      "outputs": [
        {
          "internalType": "uint256",
          "name": "",
          "type": "uint256"
        }
      ],
      "stateMutability": "view",
      "type": "function"
    },
    {
      "inputs": [
        {
          "internalType": "uint256",
          "name": "nftId",
          "type": "uint256"
        }
      ],
      "name": "getNft",
      "outputs": [],
      "stateMutability": "nonpayable",
      "type": "function"
    },
    {
      "inputs": [
        {
          "internalType": "uint256",
          "name": "nftId",
          "type": "uint256"
        }
      ],
      "name": "getNftCurrentAmount",
      "outputs": [
        {
          "internalType": "uint256",
          "name": "",
          "type": "uint256"
        }
      ],
      "stateMutability": "view",
      "type": "function"
    },
    {
      "inputs": [],
      "name": "getNftOrTokenByLotto",
      "outputs": [],
      "stateMutability": "payable",
      "type": "function"
    },
    {
      "inputs": [],
      "name": "getSell",
      "outputs": [
        {
          "internalType": "uint256[]",
          "name": "",
          "type": "uint256[]"
        }
      ],
      "stateMutability": "view",
      "type": "function"
    },
    {
      "inputs": [
        {
          "internalType": "address",
          "name": "_address",
          "type": "address"
        },
        {
          "internalType": "uint256",
          "name": "nftId",
          "type": "uint256"
        }
      ],
      "name": "getSellerNftBalance",
      "outputs": [
        {
          "internalType": "uint256",
          "name": "",
          "type": "uint256"
        }
      ],
      "stateMutability": "view",
      "type": "function"
    },
    {
      "inputs": [],
      "name": "getSellerTokenBalance",
      "outputs": [
        {
          "internalType": "uint256",
          "name": "",
          "type": "uint256"
        }
      ],
      "stateMutability": "view",
      "type": "function"
    },
    {
      "inputs": [],
      "name": "getSellingNftList",
      "outputs": [
        {
          "components": [
            {
              "internalType": "address",
              "name": "owner",
              "type": "address"
            },
            {
              "internalType": "uint256",
              "name": "orderId",
              "type": "uint256"
            },
            {
              "internalType": "uint256",
              "name": "nftId",
              "type": "uint256"
            },
            {
              "internalType": "uint256",
              "name": "price",
              "type": "uint256"
            },
            {
              "internalType": "uint256",
              "name": "date",
              "type": "uint256"
            }
          ],
          "internalType": "struct MarioNFT.SellOrder[]",
          "name": "",
          "type": "tuple[]"
        }
      ],
      "stateMutability": "view",
      "type": "function"
    },
    {
      "inputs": [
        {
          "internalType": "address",
          "name": "account",
          "type": "address"
        },
        {
          "internalType": "address",
          "name": "operator",
          "type": "address"
        }
      ],
      "name": "isApprovedForAll",
      "outputs": [
        {
          "internalType": "bool",
          "name": "",
          "type": "bool"
        }
      ],
      "stateMutability": "view",
      "type": "function"
    },
    {
      "inputs": [
        {
          "internalType": "uint256",
          "name": "",
          "type": "uint256"
        }
      ],
      "name": "nftSoldMap",
      "outputs": [
        {
          "internalType": "address",
          "name": "owner",
          "type": "address"
        },
        {
          "internalType": "uint256",
          "name": "orderId",
          "type": "uint256"
        },
        {
          "internalType": "uint256",
          "name": "nftId",
          "type": "uint256"
        },
        {
          "internalType": "uint256",
          "name": "price",
          "type": "uint256"
        },
        {
          "internalType": "uint256",
          "name": "date",
          "type": "uint256"
        }
      ],
      "stateMutability": "view",
      "type": "function"
    },
    {
      "inputs": [
        {
          "internalType": "address",
          "name": "operator",
          "type": "address"
        },
        {
          "internalType": "address",
          "name": "from",
          "type": "address"
        },
        {
          "internalType": "uint256",
          "name": "id",
          "type": "uint256"
        },
        {
          "internalType": "uint256",
          "name": "value",
          "type": "uint256"
        },
        {
          "internalType": "bytes",
          "name": "data",
          "type": "bytes"
        }
      ],
      "name": "onERC1155Received",
      "outputs": [
        {
          "internalType": "bytes4",
          "name": "",
          "type": "bytes4"
        }
      ],
      "stateMutability": "nonpayable",
      "type": "function"
    },
    {
      "inputs": [],
      "name": "owner",
      "outputs": [
        {
          "internalType": "address",
          "name": "",
          "type": "address"
        }
      ],
      "stateMutability": "view",
      "type": "function"
    },
    {
      "inputs": [],
      "name": "renounceOwnership",
      "outputs": [],
      "stateMutability": "nonpayable",
      "type": "function"
    },
    {
      "inputs": [
        {
          "internalType": "address",
          "name": "from",
          "type": "address"
        },
        {
          "internalType": "address",
          "name": "to",
          "type": "address"
        },
        {
          "internalType": "uint256[]",
          "name": "ids",
          "type": "uint256[]"
        },
        {
          "internalType": "uint256[]",
          "name": "amounts",
          "type": "uint256[]"
        },
        {
          "internalType": "bytes",
          "name": "data",
          "type": "bytes"
        }
      ],
      "name": "safeBatchTransferFrom",
      "outputs": [],
      "stateMutability": "nonpayable",
      "type": "function"
    },
    {
      "inputs": [
        {
          "internalType": "address",
          "name": "from",
          "type": "address"
        },
        {
          "internalType": "address",
          "name": "to",
          "type": "address"
        },
        {
          "internalType": "uint256",
          "name": "id",
          "type": "uint256"
        },
        {
          "internalType": "uint256",
          "name": "amount",
          "type": "uint256"
        },
        {
          "internalType": "bytes",
          "name": "data",
          "type": "bytes"
        }
      ],
      "name": "safeTransferFrom",
      "outputs": [],
      "stateMutability": "nonpayable",
      "type": "function"
    },
    {
      "inputs": [
        {
          "internalType": "uint256",
          "name": "nftId",
          "type": "uint256"
        },
        {
          "internalType": "uint256",
          "name": "price",
          "type": "uint256"
        }
      ],
      "name": "sellNft",
      "outputs": [],
      "stateMutability": "nonpayable",
      "type": "function"
    },
    {
      "inputs": [
        {
          "internalType": "address",
          "name": "operator",
          "type": "address"
        },
        {
          "internalType": "bool",
          "name": "approved",
          "type": "bool"
        }
      ],
      "name": "setApprovalForAll",
      "outputs": [],
      "stateMutability": "nonpayable",
      "type": "function"
    },
    {
      "inputs": [
        {
          "internalType": "bytes4",
          "name": "interfaceId",
          "type": "bytes4"
        }
      ],
      "name": "supportsInterface",
      "outputs": [
        {
          "internalType": "bool",
          "name": "",
          "type": "bool"
        }
      ],
      "stateMutability": "view",
      "type": "function"
    },
    {
      "inputs": [
        {
          "internalType": "address",
          "name": "newOwner",
          "type": "address"
        }
      ],
      "name": "transferOwnership",
      "outputs": [],
      "stateMutability": "nonpayable",
      "type": "function"
    },
    {
      "inputs": [
        {
          "internalType": "uint256",
          "name": "tokenId",
          "type": "uint256"
        }
      ],
      "name": "uri",
      "outputs": [
        {
          "internalType": "string",
          "name": "",
          "type": "string"
        }
      ],
      "stateMutability": "view",
      "type": "function"
    },
    {
      "inputs": [
        {
          "internalType": "uint256",
          "name": "amount",
          "type": "uint256"
        }
      ],
      "name": "withdraw",
      "outputs": [],
      "stateMutability": "nonpayable",
      "type": "function"
    }
  ],
  "bytecode": "0x60806040526000600c556000600d553480156200001b57600080fd5b50604051620068d8380380620068d8833981810160405281019062000041919062000a81565b816200005381620001f860201b60201c565b5062000074620000686200021460201b60201c565b6200021c60201b60201c565b81600a90805190602001906200008c92919062000905565b5080600b60006101000a81548173ffffffffffffffffffffffffffffffffffffffff021916908373ffffffffffffffffffffffffffffffffffffffff160217905550620000de620002e260201b60201c565b620000ee6200039a60201b60201c565b620001133060016064604051806020016040528060008152506200045260201b60201c565b620001383060026064604051806020016040528060008152506200045260201b60201c565b6200015d3060036046604051806020016040528060008152506200045260201b60201c565b620001823060046046604051806020016040528060008152506200045260201b60201c565b620001a7306005601e604051806020016040528060008152506200045260201b60201c565b620001cc306006601e604051806020016040528060008152506200045260201b60201c565b620001f030600780604051806020016040528060008152506200045260201b60201c565b5050620011a2565b80600290805190602001906200021092919062000905565b5050565b600033905090565b6000600360009054906101000a900473ffffffffffffffffffffffffffffffffffffffff16905081600360006101000a81548173ffffffffffffffffffffffffffffffffffffffff021916908373ffffffffffffffffffffffffffffffffffffffff1602179055508173ffffffffffffffffffffffffffffffffffffffff168173ffffffffffffffffffffffffffffffffffffffff167f8be0079c531659141344cd1fd0a4f28419497f9722a3daafe3b4186f6b6457e060405160405180910390a35050565b600a600460006001815260200190815260200160002081905550600a600460006002815260200190815260200160002081905550600f600460006003815260200190815260200160002081905550601460046000600481526020019081526020016000208190555060236004600060058152602001908152602001600020819055506023600460006006815260200190815260200160002081905550604b600460006007815260200190815260200160002081905550565b6064600e600060018152602001908152602001600020819055506064600e600060028152602001908152602001600020819055506046600e600060038152602001908152602001600020819055506046600e60006004815260200190815260200160002081905550601e600e60006005815260200190815260200160002081905550601e600e600060068152602001908152602001600020819055506007600e60006007815260200190815260200160002081905550565b600073ffffffffffffffffffffffffffffffffffffffff168473ffffffffffffffffffffffffffffffffffffffff161415620004c5576040517f08c379a0000000000000000000000000000000000000000000000000000000008152600401620004bc9062000cc0565b60405180910390fd5b6000620004d76200021460201b60201c565b90506200051081600087620004f2886200061760201b60201c565b62000503886200061760201b60201c565b87620006e060201b60201c565b8260008086815260200190815260200160002060008773ffffffffffffffffffffffffffffffffffffffff1673ffffffffffffffffffffffffffffffffffffffff168152602001908152602001600020600082825462000571919062000da6565b925050819055508473ffffffffffffffffffffffffffffffffffffffff16600073ffffffffffffffffffffffffffffffffffffffff168273ffffffffffffffffffffffffffffffffffffffff167fc3d58168c5ae7397731d063d5bbf3d657854427343f4c083240f7aacaa2d0f628787604051620005f192919062000ce2565b60405180910390a46200061081600087878787620006e860201b60201c565b5050505050565b60606000600167ffffffffffffffff8111156200065d577f4e487b7100000000000000000000000000000000000000000000000000000000600052604160045260246000fd5b6040519080825280602002602001820160405280156200068c5781602001602082028036833780820191505090505b5090508281600081518110620006cb577f4e487b7100000000000000000000000000000000000000000000000000000000600052603260045260246000fd5b60200260200101818152505080915050919050565b505050505050565b620007148473ffffffffffffffffffffffffffffffffffffffff16620008f260201b62001f831760201c565b15620008ea578373ffffffffffffffffffffffffffffffffffffffff1663f23a6e6187878686866040518663ffffffff1660e01b81526004016200075d95949392919062000bf4565b602060405180830381600087803b1580156200077857600080fd5b505af1925050508015620007ac57506040513d601f19601f82011682018060405250810190620007a9919062000a55565b60015b6200085e57620007bb62000f9c565b806308c379a014156200081f5750620007d3620010cc565b80620007e0575062000821565b806040517f08c379a000000000000000000000000000000000000000000000000000000000815260040162000816919062000c58565b60405180910390fd5b505b6040517f08c379a0000000000000000000000000000000000000000000000000000000008152600401620008559062000c7c565b60405180910390fd5b63f23a6e6160e01b7bffffffffffffffffffffffffffffffffffffffffffffffffffffffff1916817bffffffffffffffffffffffffffffffffffffffffffffffffffffffff191614620008e8576040517f08c379a0000000000000000000000000000000000000000000000000000000008152600401620008df9062000c9e565b60405180910390fd5b505b505050505050565b600080823b905060008111915050919050565b828054620009139062000ea3565b90600052602060002090601f01602090048101928262000937576000855562000983565b82601f106200095257805160ff191683800117855562000983565b8280016001018555821562000983579182015b828111156200098257825182559160200191906001019062000965565b5b50905062000992919062000996565b5090565b5b80821115620009b157600081600090555060010162000997565b5090565b6000620009cc620009c68462000d38565b62000d0f565b905082815260208101848484011115620009e557600080fd5b620009f284828562000e6d565b509392505050565b60008151905062000a0b816200116e565b92915050565b60008151905062000a228162001188565b92915050565b600082601f83011262000a3a57600080fd5b815162000a4c848260208601620009b5565b91505092915050565b60006020828403121562000a6857600080fd5b600062000a788482850162000a11565b91505092915050565b6000806040838503121562000a9557600080fd5b600083015167ffffffffffffffff81111562000ab057600080fd5b62000abe8582860162000a28565b925050602062000ad185828601620009fa565b9150509250929050565b62000ae68162000e03565b82525050565b600062000af98262000d6e565b62000b05818562000d84565b935062000b1781856020860162000e6d565b62000b228162000fc1565b840191505092915050565b600062000b3a8262000d79565b62000b46818562000d95565b935062000b5881856020860162000e6d565b62000b638162000fc1565b840191505092915050565b600062000b7d60348362000d95565b915062000b8a8262000fdf565b604082019050919050565b600062000ba460288362000d95565b915062000bb1826200102e565b604082019050919050565b600062000bcb60218362000d95565b915062000bd8826200107d565b604082019050919050565b62000bee8162000e63565b82525050565b600060a08201905062000c0b600083018862000adb565b62000c1a602083018762000adb565b62000c29604083018662000be3565b62000c38606083018562000be3565b818103608083015262000c4c818462000aec565b90509695505050505050565b6000602082019050818103600083015262000c74818462000b2d565b905092915050565b6000602082019050818103600083015262000c978162000b6e565b9050919050565b6000602082019050818103600083015262000cb98162000b95565b9050919050565b6000602082019050818103600083015262000cdb8162000bbc565b9050919050565b600060408201905062000cf9600083018562000be3565b62000d08602083018462000be3565b9392505050565b600062000d1b62000d2e565b905062000d29828262000ed9565b919050565b6000604051905090565b600067ffffffffffffffff82111562000d565762000d5562000f6d565b5b62000d618262000fc1565b9050602081019050919050565b600081519050919050565b600081519050919050565b600082825260208201905092915050565b600082825260208201905092915050565b600062000db38262000e63565b915062000dc08362000e63565b9250827fffffffffffffffffffffffffffffffffffffffffffffffffffffffffffffffff0382111562000df85762000df762000f0f565b5b828201905092915050565b600062000e108262000e43565b9050919050565b60007fffffffff0000000000000000000000000000000000000000000000000000000082169050919050565b600073ffffffffffffffffffffffffffffffffffffffff82169050919050565b6000819050919050565b60005b8381101562000e8d57808201518184015260208101905062000e70565b8381111562000e9d576000848401525b50505050565b6000600282049050600182168062000ebc57607f821691505b6020821081141562000ed35762000ed262000f3e565b5b50919050565b62000ee48262000fc1565b810181811067ffffffffffffffff8211171562000f065762000f0562000f6d565b5b80604052505050565b7f4e487b7100000000000000000000000000000000000000000000000000000000600052601160045260246000fd5b7f4e487b7100000000000000000000000000000000000000000000000000000000600052602260045260246000fd5b7f4e487b7100000000000000000000000000000000000000000000000000000000600052604160045260246000fd5b600060033d111562000fbe5760046000803e62000fbb60005162000fd2565b90505b90565b6000601f19601f8301169050919050565b60008160e01c9050919050565b7f455243313135353a207472616e7366657220746f206e6f6e204552433131353560008201527f526563656976657220696d706c656d656e746572000000000000000000000000602082015250565b7f455243313135353a204552433131353552656365697665722072656a6563746560008201527f6420746f6b656e73000000000000000000000000000000000000000000000000602082015250565b7f455243313135353a206d696e7420746f20746865207a65726f2061646472657360008201527f7300000000000000000000000000000000000000000000000000000000000000602082015250565b600060443d1015620010de576200116b565b620010e862000d2e565b60043d036004823e80513d602482011167ffffffffffffffff82111715620011125750506200116b565b808201805167ffffffffffffffff8111156200113257505050506200116b565b80602083010160043d038501811115620011515750505050506200116b565b620011628260200185018662000ed9565b82955050505050505b90565b620011798162000e03565b81146200118557600080fd5b50565b620011938162000e17565b81146200119f57600080fd5b50565b61572680620011b26000396000f3fe6080604052600436106101cc5760003560e01c80636c0360eb116100f7578063bf76dd3711610095578063f1fe7c8311610064578063f1fe7c8314610682578063f23a6e61146106ad578063f242432a146106ea578063f2fde38b14610713576101cc565b8063bf76dd37146105e5578063e985e9c5146105ef578063ee4e2bb51461062c578063efaf057814610657576101cc565b8063715018a6116100d1578063715018a61461053d5780638da5cb5b146105545780639330034c1461057f578063a22cb465146105bc576101cc565b80636c0360eb146104a65780636cb35120146104d15780636f9fb98a14610512576101cc565b80632eb2c2d61161016f57806347fb0bed1161013e57806347fb0bed146103ec5780634e1273f4146104175780635208eb0914610454578063556f80841461047d576101cc565b80632eb2c2d61461034457806330f8fc4b1461036d57806341f63bfd146103985780634495ce4a146103c1576101cc565b806312369737116101ab57806312369737146102885780631af526b0146102c5578063208b8591146102f05780632e1a7d4d1461031b576101cc565b8062fdd58e146101d157806301ffc9a71461020e5780630e89341c1461024b575b600080fd5b3480156101dd57600080fd5b506101f860048036038101906101f39190613c2c565b61073c565b6040516102059190614a8e565b60405180910390f35b34801561021a57600080fd5b5061023560048036038101906102309190613cfd565b610805565b6040516102429190614776565b60405180910390f35b34801561025757600080fd5b50610272600480360381019061026d9190613d4f565b6108e7565b60405161027f91906147ac565b60405180910390f35b34801561029457600080fd5b506102af60048036038101906102aa9190613d4f565b61091b565b6040516102bc9190614a8e565b60405180910390f35b3480156102d157600080fd5b506102da61092e565b6040516102e7919061471d565b60405180910390f35b3480156102fc57600080fd5b506103056109c3565b6040516103129190614701565b60405180910390f35b34801561032757600080fd5b50610342600480360381019061033d9190613d4f565b610a49565b005b34801561035057600080fd5b5061036b60048036038101906103669190613a10565b610b2e565b005b34801561037957600080fd5b50610382610bcf565b60405161038f91906146df565b60405180910390f35b3480156103a457600080fd5b506103bf60048036038101906103ba9190613d4f565b610da9565b005b3480156103cd57600080fd5b506103d6610db7565b6040516103e391906144aa565b60405180910390f35b3480156103f857600080fd5b50610401610ddd565b60405161040e91906144aa565b60405180910390f35b34801561042357600080fd5b5061043e60048036038101906104399190613c68565b610de5565b60405161044b919061471d565b60405180910390f35b34801561046057600080fd5b5061047b60048036038101906104769190613da1565b610f96565b005b34801561048957600080fd5b506104a4600480360381019061049f9190613da1565b6111b5565b005b3480156104b257600080fd5b506104bb611673565b6040516104c891906147ac565b60405180910390f35b3480156104dd57600080fd5b506104f860048036038101906104f39190613d4f565b611701565b60405161050995949392919061468c565b60405180910390f35b34801561051e57600080fd5b50610527611757565b6040516105349190614a8e565b60405180910390f35b34801561054957600080fd5b50610552611767565b005b34801561056057600080fd5b506105696117ef565b60405161057691906144aa565b60405180910390f35b34801561058b57600080fd5b506105a660048036038101906105a19190613c2c565b611819565b6040516105b39190614a8e565b60405180910390f35b3480156105c857600080fd5b506105e360048036038101906105de9190613bf0565b611879565b005b6105ed61188f565b005b3480156105fb57600080fd5b50610616600480360381019061061191906139d4565b611a01565b6040516106239190614776565b60405180910390f35b34801561063857600080fd5b50610641611a95565b60405161064e9190614701565b60405180910390f35b34801561066357600080fd5b5061066c611b26565b6040516106799190614a8e565b60405180910390f35b34801561068e57600080fd5b50610697611b6d565b6040516106a491906146df565b60405180910390f35b3480156106b957600080fd5b506106d460048036038101906106cf9190613acf565b611dd4565b6040516106e19190614791565b60405180910390f35b3480156106f657600080fd5b50610711600480360381019061070c9190613b61565b611dea565b005b34801561071f57600080fd5b5061073a600480360381019061073591906139ab565b611e8b565b005b60008073ffffffffffffffffffffffffffffffffffffffff168373ffffffffffffffffffffffffffffffffffffffff1614156107ad576040517f08c379a00000000000000000000000000000000000000000000000000000000081526004016107a49061484e565b60405180910390fd5b60008083815260200190815260200160002060008473ffffffffffffffffffffffffffffffffffffffff1673ffffffffffffffffffffffffffffffffffffffff16815260200190815260200160002054905092915050565b60007fd9b67a26000000000000000000000000000000000000000000000000000000007bffffffffffffffffffffffffffffffffffffffffffffffffffffffff1916827bffffffffffffffffffffffffffffffffffffffffffffffffffffffff191614806108d057507f0e89341c000000000000000000000000000000000000000000000000000000007bffffffffffffffffffffffffffffffffffffffffffffffffffffffff1916827bffffffffffffffffffffffffffffffffffffffffffffffffffffffff1916145b806108e057506108df82611f96565b5b9050919050565b6060600a6108f483612000565b60405160200161090592919061444f565b6040516020818303038152906040529050919050565b6000610927308361073c565b9050919050565b6060600860003373ffffffffffffffffffffffffffffffffffffffff1673ffffffffffffffffffffffffffffffffffffffff1681526020019081526020016000208054806020026020016040519081016040528092919081815260200182805480156109b957602002820191906000526020600020905b8154815260200190600101908083116109a5575b5050505050905090565b6109cb6136d2565b6109d36136d2565b6000600190505b6008811015610a41576109ec8161091b565b828260088110610a25577f4e487b7100000000000000000000000000000000000000000000000000000000600052603260045260246000fd5b6020020181815250508080610a3990614ee1565b9150506109da565b508091505090565b80600960003373ffffffffffffffffffffffffffffffffffffffff1673ffffffffffffffffffffffffffffffffffffffff168152602001908152602001600020541015610acb576040517f08c379a0000000000000000000000000000000000000000000000000000000008152600401610ac2906149ae565b60405180910390fd5b610ad533826121ad565b80600960003373ffffffffffffffffffffffffffffffffffffffff1673ffffffffffffffffffffffffffffffffffffffff1681526020019081526020016000206000828254610b249190614d58565b9250508190555050565b610b36612261565b73ffffffffffffffffffffffffffffffffffffffff168573ffffffffffffffffffffffffffffffffffffffff161480610b7c5750610b7b85610b76612261565b611a01565b5b610bbb576040517f08c379a0000000000000000000000000000000000000000000000000000000008152600401610bb29061496e565b60405180910390fd5b610bc88585858585612269565b5050505050565b6060600060068054905067ffffffffffffffff811115610c18577f4e487b7100000000000000000000000000000000000000000000000000000000600052604160045260246000fd5b604051908082528060200260200182016040528015610c5157816020015b610c3e6136f5565b815260200190600190039081610c365790505b50905060005b600680549050811015610da157600060068281548110610ca0577f4e487b7100000000000000000000000000000000000000000000000000000000600052603260045260246000fd5b90600052602060002001549050600560008281526020019081526020016000206040518060a00160405290816000820160009054906101000a900473ffffffffffffffffffffffffffffffffffffffff1673ffffffffffffffffffffffffffffffffffffffff1673ffffffffffffffffffffffffffffffffffffffff168152602001600182015481526020016002820154815260200160038201548152602001600482015481525050838381518110610d82577f4e487b7100000000000000000000000000000000000000000000000000000000600052603260045260246000fd5b6020026020010181905250508080610d9990614ee1565b915050610c57565b508091505090565b610db43033836125c9565b50565b600b60009054906101000a900473ffffffffffffffffffffffffffffffffffffffff1681565b600033905090565b60608151835114610e2b576040517f08c379a0000000000000000000000000000000000000000000000000000000008152600401610e2290614a4e565b60405180910390fd5b6000835167ffffffffffffffff811115610e6e577f4e487b7100000000000000000000000000000000000000000000000000000000600052604160045260246000fd5b604051908082528060200260200182016040528015610e9c5781602001602082028036833780820191505090505b50905060005b8451811015610f8b57610f35858281518110610ee7577f4e487b7100000000000000000000000000000000000000000000000000000000600052603260045260246000fd5b6020026020010151858381518110610f28577f4e487b7100000000000000000000000000000000000000000000000000000000600052603260045260246000fd5b602002602001015161073c565b828281518110610f6e577f4e487b7100000000000000000000000000000000000000000000000000000000600052603260045260246000fd5b60200260200101818152505080610f8490614ee1565b9050610ea2565b508091505092915050565b6007821115610fda576040517f08c379a0000000000000000000000000000000000000000000000000000000008152600401610fd1906149ee565b60405180910390fd5b610fe382612642565b610fed33836126c0565b600d600081548092919061100090614ee1565b91905055506040518060a001604052803373ffffffffffffffffffffffffffffffffffffffff168152602001600d5481526020018381526020018281526020014281525060056000600d54815260200190815260200160002060008201518160000160006101000a81548173ffffffffffffffffffffffffffffffffffffffff021916908373ffffffffffffffffffffffffffffffffffffffff160217905550602082015181600101556040820151816002015560608201518160030155608082015181600401559050506006600d549080600181540180825580915050600190039060005260206000200160009091909190915055600860003373ffffffffffffffffffffffffffffffffffffffff1673ffffffffffffffffffffffffffffffffffffffff168152602001908152602001600020600d549080600181540180825580915050600190039060005260206000200160009091909190915055600d543373ffffffffffffffffffffffffffffffffffffffff167fb8dc26799b764e6926951f7bb012dfdbd23920aaff0bb1966626cc1e19a42f2484846040516111a9929190614aa9565b60405180910390a35050565b60006005600084815260200190815260200160002060010154141561120f576040517f08c379a000000000000000000000000000000000000000000000000000000000815260040161120690614a0e565b60405180910390fd5b6005600083815260200190815260200160002060000160009054906101000a900473ffffffffffffffffffffffffffffffffffffffff1673ffffffffffffffffffffffffffffffffffffffff163373ffffffffffffffffffffffffffffffffffffffff1614156112b4576040517f08c379a00000000000000000000000000000000000000000000000000000000081526004016112ab9061492e565b60405180910390fd5b6112be338261275d565b600b60009054906101000a900473ffffffffffffffffffffffffffffffffffffffff1673ffffffffffffffffffffffffffffffffffffffff166323b872dd3330846040518463ffffffff1660e01b815260040161131d9392919061452d565b602060405180830381600087803b15801561133757600080fd5b505af115801561134b573d6000803e3d6000fd5b505050506040513d601f19601f8201168201806040525081019061136f9190613cd4565b5060006005600084815260200190815260200160002060020154905060006005600085815260200190815260200160002060000160009054906101000a900473ffffffffffffffffffffffffffffffffffffffff169050600760008273ffffffffffffffffffffffffffffffffffffffff1673ffffffffffffffffffffffffffffffffffffffff1681526020019081526020016000206000838152602001908152602001600020600081548092919061142790614e54565b919050555060056000858152602001908152602001600020600080820160006101000a81549073ffffffffffffffffffffffffffffffffffffffff0219169055600182016000905560028201600090556003820160009055600482016000905550506114d1600860008373ffffffffffffffffffffffffffffffffffffffff1673ffffffffffffffffffffffffffffffffffffffff1681526020019081526020016000208561282f565b6114dc60068561282f565b6114e73033846125c9565b606483101561159c5782600960008373ffffffffffffffffffffffffffffffffffffffff1673ffffffffffffffffffffffffffffffffffffffff168152602001908152602001600020600082825461153f9190614c77565b92505081905550833373ffffffffffffffffffffffffffffffffffffffff167fe0f418bb0e86829c4c342c1375cd5aa8e417fc29b5f07fe835c88d26adb865e5848660405161158f929190614aa9565b60405180910390a361166d565b60006064600a856115ad9190614cfe565b6115b79190614ccd565b905080846115c59190614d58565b600960008473ffffffffffffffffffffffffffffffffffffffff1673ffffffffffffffffffffffffffffffffffffffff16815260200190815260200160002060008282546116139190614c77565b92505081905550843373ffffffffffffffffffffffffffffffffffffffff167fe0f418bb0e86829c4c342c1375cd5aa8e417fc29b5f07fe835c88d26adb865e58587604051611663929190614aa9565b60405180910390a3505b50505050565b600a805461168090614e7e565b80601f01602080910402602001604051908101604052809291908181526020018280546116ac90614e7e565b80156116f95780601f106116ce576101008083540402835291602001916116f9565b820191906000526020600020905b8154815290600101906020018083116116dc57829003601f168201915b505050505081565b60056020528060005260406000206000915090508060000160009054906101000a900473ffffffffffffffffffffffffffffffffffffffff16908060010154908060020154908060030154908060040154905085565b600061176230612a2c565b905090565b61176f612261565b73ffffffffffffffffffffffffffffffffffffffff1661178d6117ef565b73ffffffffffffffffffffffffffffffffffffffff16146117e3576040517f08c379a00000000000000000000000000000000000000000000000000000000081526004016117da906149ce565b60405180910390fd5b6117ed6000612ae0565b565b6000600360009054906101000a900473ffffffffffffffffffffffffffffffffffffffff16905090565b600080600760008573ffffffffffffffffffffffffffffffffffffffff1673ffffffffffffffffffffffffffffffffffffffff16815260200190815260200160002060008481526020019081526020016000205490508091505092915050565b61188b611884612261565b8383612ba6565b5050565b67016345785d8a000034146118d9576040517f08c379a00000000000000000000000000000000000000000000000000000000081526004016118d09061482e565b60405180910390fd5b60006118e3612d13565b905060008160ff16101580156118fc5750603c8160ff16105b156119115761190c600133612d88565b6119fe565b603c8160ff1610158015611928575060788160ff16105b1561193d57611938600233612d88565b6119fd565b60788160ff1610158015611954575060a08160ff16105b1561196957611964600333612d88565b6119fc565b60a08160ff1610158015611980575060c88160ff16105b1561199557611990600433612d88565b6119fb565b60c88160ff16101580156119ac575060e08160ff16105b156119c1576119bc600533612d88565b6119fa565b60e08160ff16101580156119d8575060f88160ff16105b156119ed576119e8600633612d88565b6119f9565b6119f8600733612d88565b5b5b5b5b5b5b50565b6000600160008473ffffffffffffffffffffffffffffffffffffffff1673ffffffffffffffffffffffffffffffffffffffff16815260200190815260200160002060008373ffffffffffffffffffffffffffffffffffffffff1673ffffffffffffffffffffffffffffffffffffffff16815260200190815260200160002060009054906101000a900460ff16905092915050565b611a9d6136d2565b611aa56136d2565b6000600190505b6008811015611b1e57600e600082815260200190815260200160002054828260088110611b02577f4e487b7100000000000000000000000000000000000000000000000000000000600052603260045260246000fd5b6020020181815250508080611b1690614ee1565b915050611aac565b508091505090565b6000600960003373ffffffffffffffffffffffffffffffffffffffff1673ffffffffffffffffffffffffffffffffffffffff16815260200190815260200160002054905090565b60606000600860003373ffffffffffffffffffffffffffffffffffffffff1673ffffffffffffffffffffffffffffffffffffffff168152602001908152602001600020805480602002602001604051908101604052809291908181526020018280548015611bfa57602002820191906000526020600020905b815481526020019060010190808311611be6575b505050505090506000815167ffffffffffffffff811115611c44577f4e487b7100000000000000000000000000000000000000000000000000000000600052604160045260246000fd5b604051908082528060200260200182016040528015611c7d57816020015b611c6a6136f5565b815260200190600190039081611c625790505b50905060005b8251811015611dcb576000838281518110611cc7577f4e487b7100000000000000000000000000000000000000000000000000000000600052603260045260246000fd5b602002602001015190506000600560008381526020019081526020016000206040518060a00160405290816000820160009054906101000a900473ffffffffffffffffffffffffffffffffffffffff1673ffffffffffffffffffffffffffffffffffffffff1673ffffffffffffffffffffffffffffffffffffffff168152602001600182015481526020016002820154815260200160038201548152602001600482015481525050905080848481518110611dab577f4e487b7100000000000000000000000000000000000000000000000000000000600052603260045260246000fd5b602002602001018190525050508080611dc390614ee1565b915050611c83565b50809250505090565b600063f23a6e6160e01b90509695505050505050565b611df2612261565b73ffffffffffffffffffffffffffffffffffffffff168573ffffffffffffffffffffffffffffffffffffffff161480611e385750611e3785611e32612261565b611a01565b5b611e77576040517f08c379a0000000000000000000000000000000000000000000000000000000008152600401611e6e906148ae565b60405180910390fd5b611e848585858585612f5e565b5050505050565b611e93612261565b73ffffffffffffffffffffffffffffffffffffffff16611eb16117ef565b73ffffffffffffffffffffffffffffffffffffffff1614611f07576040517f08c379a0000000000000000000000000000000000000000000000000000000008152600401611efe906149ce565b60405180910390fd5b600073ffffffffffffffffffffffffffffffffffffffff168173ffffffffffffffffffffffffffffffffffffffff161415611f77576040517f08c379a0000000000000000000000000000000000000000000000000000000008152600401611f6e9061488e565b60405180910390fd5b611f8081612ae0565b50565b600080823b905060008111915050919050565b60007f01ffc9a7000000000000000000000000000000000000000000000000000000007bffffffffffffffffffffffffffffffffffffffffffffffffffffffff1916827bffffffffffffffffffffffffffffffffffffffffffffffffffffffff1916149050919050565b60606000821415612048576040518060400160405280600181526020017f300000000000000000000000000000000000000000000000000000000000000081525090506121a8565b600082905060005b6000821461207a57808061206390614ee1565b915050600a826120739190614ccd565b9150612050565b60008167ffffffffffffffff8111156120bc577f4e487b7100000000000000000000000000000000000000000000000000000000600052604160045260246000fd5b6040519080825280601f01601f1916602001820160405280156120ee5781602001600182028036833780820191505090505b5090505b600085146121a1576001826121079190614d58565b9150600a856121169190614f34565b60306121229190614c77565b60f81b81838151811061215e577f4e487b7100000000000000000000000000000000000000000000000000000000600052603260045260246000fd5b60200101907effffffffffffffffffffffffffffffffffffffffffffffffffffffffffffff1916908160001a905350600a8561219a9190614ccd565b94506120f2565b8093505050505b919050565b600b60009054906101000a900473ffffffffffffffffffffffffffffffffffffffff1673ffffffffffffffffffffffffffffffffffffffff1663a9059cbb83836040518363ffffffff1660e01b815260040161220a92919061462c565b602060405180830381600087803b15801561222457600080fd5b505af1158015612238573d6000803e3d6000fd5b505050506040513d601f19601f8201168201806040525081019061225c9190613cd4565b505050565b600033905090565b81518351146122ad576040517f08c379a00000000000000000000000000000000000000000000000000000000081526004016122a490614a6e565b60405180910390fd5b600073ffffffffffffffffffffffffffffffffffffffff168473ffffffffffffffffffffffffffffffffffffffff16141561231d576040517f08c379a00000000000000000000000000000000000000000000000000000000081526004016123149061494e565b60405180910390fd5b6000612327612261565b90506123378187878787876131e0565b60005b845181101561253457600085828151811061237e577f4e487b7100000000000000000000000000000000000000000000000000000000600052603260045260246000fd5b6020026020010151905060008583815181106123c3577f4e487b7100000000000000000000000000000000000000000000000000000000600052603260045260246000fd5b60200260200101519050600080600084815260200190815260200160002060008b73ffffffffffffffffffffffffffffffffffffffff1673ffffffffffffffffffffffffffffffffffffffff16815260200190815260200160002054905081811015612464576040517f08c379a000000000000000000000000000000000000000000000000000000000815260040161245b9061498e565b60405180910390fd5b81810360008085815260200190815260200160002060008c73ffffffffffffffffffffffffffffffffffffffff1673ffffffffffffffffffffffffffffffffffffffff168152602001908152602001600020819055508160008085815260200190815260200160002060008b73ffffffffffffffffffffffffffffffffffffffff1673ffffffffffffffffffffffffffffffffffffffff16815260200190815260200160002060008282546125199190614c77565b925050819055505050508061252d90614ee1565b905061233a565b508473ffffffffffffffffffffffffffffffffffffffff168673ffffffffffffffffffffffffffffffffffffffff168273ffffffffffffffffffffffffffffffffffffffff167f4a39dc06d4c0dbc64b70af90fd698a233a518aa5d07e595d983b8c0526c8f7fb87876040516125ab92919061473f565b60405180910390a46125c18187878787876131e8565b505050505050565b3073ffffffffffffffffffffffffffffffffffffffff168373ffffffffffffffffffffffffffffffffffffffff16141561261f5761261a308383600160405180602001604052806000815250612f5e565b61263d565b61263c838383600160405180602001604052806000815250611dea565b5b505050565b61264c33826133cf565b6126573330836125c9565b600760003373ffffffffffffffffffffffffffffffffffffffff1673ffffffffffffffffffffffffffffffffffffffff168152602001908152602001600020600082815260200190815260200160002060008154809291906126b890614ee1565b919050555050565b6000600760008473ffffffffffffffffffffffffffffffffffffffff1673ffffffffffffffffffffffffffffffffffffffff168152602001908152602001600020600083815260200190815260200160002054905060008111612758576040517f08c379a000000000000000000000000000000000000000000000000000000000815260040161274f9061486e565b60405180910390fd5b505050565b600061276883612a2c565b90503073ffffffffffffffffffffffffffffffffffffffff168373ffffffffffffffffffffffffffffffffffffffff1614156127e657818110156127e1576040517f08c379a00000000000000000000000000000000000000000000000000000000081526004016127d89061480e565b60405180910390fd5b61282a565b81811015612829576040517f08c379a00000000000000000000000000000000000000000000000000000000081526004016128209061490e565b60405180910390fd5b5b505050565b6000829050600080600183805490506128489190614d58565b905060005b83805490508110156128bb57838181548110612892577f4e487b7100000000000000000000000000000000000000000000000000000000600052603260045260246000fd5b90600052602060002001548514156128a8578092505b80806128b390614ee1565b91505061284d565b5060008382815481106128f7577f4e487b7100000000000000000000000000000000000000000000000000000000600052603260045260246000fd5b9060005260206000200154905083838154811061293d577f4e487b7100000000000000000000000000000000000000000000000000000000600052603260045260246000fd5b9060005260206000200154848381548110612981577f4e487b7100000000000000000000000000000000000000000000000000000000600052603260045260246000fd5b9060005260206000200181905550808484815481106129c9577f4e487b7100000000000000000000000000000000000000000000000000000000600052603260045260246000fd5b906000526020600020018190555083805480612a0e577f4e487b7100000000000000000000000000000000000000000000000000000000600052603160045260246000fd5b60019003818190600052602060002001600090559055505050505050565b6000600b60009054906101000a900473ffffffffffffffffffffffffffffffffffffffff1673ffffffffffffffffffffffffffffffffffffffff166370a08231836040518263ffffffff1660e01b8152600401612a8991906144aa565b60206040518083038186803b158015612aa157600080fd5b505afa158015612ab5573d6000803e3d6000fd5b505050506040513d601f19601f82011682018060405250810190612ad99190613d78565b9050919050565b6000600360009054906101000a900473ffffffffffffffffffffffffffffffffffffffff16905081600360006101000a81548173ffffffffffffffffffffffffffffffffffffffff021916908373ffffffffffffffffffffffffffffffffffffffff1602179055508173ffffffffffffffffffffffffffffffffffffffff168173ffffffffffffffffffffffffffffffffffffffff167f8be0079c531659141344cd1fd0a4f28419497f9722a3daafe3b4186f6b6457e060405160405180910390a35050565b8173ffffffffffffffffffffffffffffffffffffffff168373ffffffffffffffffffffffffffffffffffffffff161415612c15576040517f08c379a0000000000000000000000000000000000000000000000000000000008152600401612c0c90614a2e565b60405180910390fd5b80600160008573ffffffffffffffffffffffffffffffffffffffff1673ffffffffffffffffffffffffffffffffffffffff16815260200190815260200160002060008473ffffffffffffffffffffffffffffffffffffffff1673ffffffffffffffffffffffffffffffffffffffff16815260200190815260200160002060006101000a81548160ff0219169083151502179055508173ffffffffffffffffffffffffffffffffffffffff168373ffffffffffffffffffffffffffffffffffffffff167f17307eab39ab6107e8899845ad3d59bd9653f200f220920489ca2b5937696c3183604051612d069190614776565b60405180910390a3505050565b6000804442604051602001612d2992919061447e565b60405160208183030381529060405280519060200120905080601f60208110612d7b577f4e487b7100000000000000000000000000000000000000000000000000000000600052603260045260246000fd5b1a60f81b60f81c91505090565b60088210612dcb576040517f08c379a0000000000000000000000000000000000000000000000000000000008152600401612dc2906148ce565b60405180910390fd5b6000612dd7308461073c565b90506000811115612e4557612ded3083856125c9565b8173ffffffffffffffffffffffffffffffffffffffff167f7d2d5ed46e76d1498cb4d2969533efe5bd10438c2678a278cf96d2666b45109730856000604051612e3893929190614655565b60405180910390a2612f58565b6000612e5030612a2c565b905060006004600086815260200190815260200160002054905060006064826064612e7b9190614d58565b84612e869190614cfe565b612e909190614ccd565b90506000811415612ef7578473ffffffffffffffffffffffffffffffffffffffff167f7d2d5ed46e76d1498cb4d2969533efe5bd10438c2678a278cf96d2666b45109730600080604051612ee6939291906145be565b60405180910390a250505050612f5a565b612f0185826121ad565b8473ffffffffffffffffffffffffffffffffffffffff167f7d2d5ed46e76d1498cb4d2969533efe5bd10438c2678a278cf96d2666b45109730600084604051612f4c939291906145f5565b60405180910390a25050505b505b5050565b600073ffffffffffffffffffffffffffffffffffffffff168473ffffffffffffffffffffffffffffffffffffffff161415612fce576040517f08c379a0000000000000000000000000000000000000000000000000000000008152600401612fc59061494e565b60405180910390fd5b6000612fd8612261565b9050612ff8818787612fe988613425565b612ff288613425565b876131e0565b600080600086815260200190815260200160002060008873ffffffffffffffffffffffffffffffffffffffff1673ffffffffffffffffffffffffffffffffffffffff1681526020019081526020016000205490508381101561308f576040517f08c379a00000000000000000000000000000000000000000000000000000000081526004016130869061498e565b60405180910390fd5b83810360008087815260200190815260200160002060008973ffffffffffffffffffffffffffffffffffffffff1673ffffffffffffffffffffffffffffffffffffffff168152602001908152602001600020819055508360008087815260200190815260200160002060008873ffffffffffffffffffffffffffffffffffffffff1673ffffffffffffffffffffffffffffffffffffffff16815260200190815260200160002060008282546131449190614c77565b925050819055508573ffffffffffffffffffffffffffffffffffffffff168773ffffffffffffffffffffffffffffffffffffffff168373ffffffffffffffffffffffffffffffffffffffff167fc3d58168c5ae7397731d063d5bbf3d657854427343f4c083240f7aacaa2d0f6288886040516131c1929190614aa9565b60405180910390a46131d78288888888886134eb565b50505050505050565b505050505050565b6132078473ffffffffffffffffffffffffffffffffffffffff16611f83565b156133c7578373ffffffffffffffffffffffffffffffffffffffff1663bc197c8187878686866040518663ffffffff1660e01b815260040161324d9594939291906144c5565b602060405180830381600087803b15801561326757600080fd5b505af192505050801561329857506040513d601f19601f820116820180604052508101906132959190613d26565b60015b61333e576132a4615021565b806308c379a0141561330157506132b96155fe565b806132c45750613303565b806040517f08c379a00000000000000000000000000000000000000000000000000000000081526004016132f891906147ac565b60405180910390fd5b505b6040517f08c379a0000000000000000000000000000000000000000000000000000000008152600401613335906147ce565b60405180910390fd5b63bc197c8160e01b7bffffffffffffffffffffffffffffffffffffffffffffffffffffffff1916817bffffffffffffffffffffffffffffffffffffffffffffffffffffffff1916146133c5576040517f08c379a00000000000000000000000000000000000000000000000000000000081526004016133bc906147ee565b60405180910390fd5b505b505050505050565b60006133db838361073c565b905060008111613420576040517f08c379a0000000000000000000000000000000000000000000000000000000008152600401613417906148ee565b60405180910390fd5b505050565b60606000600167ffffffffffffffff81111561346a577f4e487b7100000000000000000000000000000000000000000000000000000000600052604160045260246000fd5b6040519080825280602002602001820160405280156134985781602001602082028036833780820191505090505b50905082816000815181106134d6577f4e487b7100000000000000000000000000000000000000000000000000000000600052603260045260246000fd5b60200260200101818152505080915050919050565b61350a8473ffffffffffffffffffffffffffffffffffffffff16611f83565b156136ca578373ffffffffffffffffffffffffffffffffffffffff1663f23a6e6187878686866040518663ffffffff1660e01b8152600401613550959493929190614564565b602060405180830381600087803b15801561356a57600080fd5b505af192505050801561359b57506040513d601f19601f820116820180604052508101906135989190613d26565b60015b613641576135a7615021565b806308c379a0141561360457506135bc6155fe565b806135c75750613606565b806040517f08c379a00000000000000000000000000000000000000000000000000000000081526004016135fb91906147ac565b60405180910390fd5b505b6040517f08c379a0000000000000000000000000000000000000000000000000000000008152600401613638906147ce565b60405180910390fd5b63f23a6e6160e01b7bffffffffffffffffffffffffffffffffffffffffffffffffffffffff1916817bffffffffffffffffffffffffffffffffffffffffffffffffffffffff1916146136c8576040517f08c379a00000000000000000000000000000000000000000000000000000000081526004016136bf906147ee565b60405180910390fd5b505b505050505050565b604051806101000160405280600890602082028036833780820191505090505090565b6040518060a00160405280600073ffffffffffffffffffffffffffffffffffffffff168152602001600081526020016000815260200160008152602001600081525090565b600061374d61374884614af7565b614ad2565b9050808382526020820190508285602086028201111561376c57600080fd5b60005b8581101561379c57816137828882613850565b84526020840193506020830192505060018101905061376f565b5050509392505050565b60006137b96137b484614b23565b614ad2565b905080838252602082019050828560208602820111156137d857600080fd5b60005b8581101561380857816137ee8882613981565b8452602084019350602083019250506001810190506137db565b5050509392505050565b600061382561382084614b4f565b614ad2565b90508281526020810184848401111561383d57600080fd5b613848848285614e12565b509392505050565b60008135905061385f81615694565b92915050565b600082601f83011261387657600080fd5b813561388684826020860161373a565b91505092915050565b600082601f8301126138a057600080fd5b81356138b08482602086016137a6565b91505092915050565b6000813590506138c8816156ab565b92915050565b6000815190506138dd816156ab565b92915050565b6000813590506138f2816156c2565b92915050565b600081519050613907816156c2565b92915050565b60008083601f84011261391f57600080fd5b8235905067ffffffffffffffff81111561393857600080fd5b60208301915083600182028301111561395057600080fd5b9250929050565b600082601f83011261396857600080fd5b8135613978848260208601613812565b91505092915050565b600081359050613990816156d9565b92915050565b6000815190506139a5816156d9565b92915050565b6000602082840312156139bd57600080fd5b60006139cb84828501613850565b91505092915050565b600080604083850312156139e757600080fd5b60006139f585828601613850565b9250506020613a0685828601613850565b9150509250929050565b600080600080600060a08688031215613a2857600080fd5b6000613a3688828901613850565b9550506020613a4788828901613850565b945050604086013567ffffffffffffffff811115613a6457600080fd5b613a708882890161388f565b935050606086013567ffffffffffffffff811115613a8d57600080fd5b613a998882890161388f565b925050608086013567ffffffffffffffff811115613ab657600080fd5b613ac288828901613957565b9150509295509295909350565b60008060008060008060a08789031215613ae857600080fd5b6000613af689828a01613850565b9650506020613b0789828a01613850565b9550506040613b1889828a01613981565b9450506060613b2989828a01613981565b935050608087013567ffffffffffffffff811115613b4657600080fd5b613b5289828a0161390d565b92509250509295509295509295565b600080600080600060a08688031215613b7957600080fd5b6000613b8788828901613850565b9550506020613b9888828901613850565b9450506040613ba988828901613981565b9350506060613bba88828901613981565b925050608086013567ffffffffffffffff811115613bd757600080fd5b613be388828901613957565b9150509295509295909350565b60008060408385031215613c0357600080fd5b6000613c1185828601613850565b9250506020613c22858286016138b9565b9150509250929050565b60008060408385031215613c3f57600080fd5b6000613c4d85828601613850565b9250506020613c5e85828601613981565b9150509250929050565b60008060408385031215613c7b57600080fd5b600083013567ffffffffffffffff811115613c9557600080fd5b613ca185828601613865565b925050602083013567ffffffffffffffff811115613cbe57600080fd5b613cca8582860161388f565b9150509250929050565b600060208284031215613ce657600080fd5b6000613cf4848285016138ce565b91505092915050565b600060208284031215613d0f57600080fd5b6000613d1d848285016138e3565b91505092915050565b600060208284031215613d3857600080fd5b6000613d46848285016138f8565b91505092915050565b600060208284031215613d6157600080fd5b6000613d6f84828501613981565b91505092915050565b600060208284031215613d8a57600080fd5b6000613d9884828501613996565b91505092915050565b60008060408385031215613db457600080fd5b6000613dc285828601613981565b9250506020613dd385828601613981565b9150509250929050565b6000613de983836143b2565b60a08301905092915050565b6000613e01838361441a565b60208301905092915050565b613e1681614d8c565b82525050565b613e2581614d8c565b82525050565b6000613e3682614bbf565b613e408185614c1d565b9350613e4b83614b80565b8060005b83811015613e7c578151613e638882613ddd565b9750613e6e83614bf6565b925050600181019050613e4f565b5085935050505092915050565b613e9281614bca565b613e9c8184614c2e565b9250613ea782614b90565b8060005b83811015613ed8578151613ebf8782613df5565b9650613eca83614c03565b925050600181019050613eab565b505050505050565b6000613eeb82614bd5565b613ef58185614c39565b9350613f0083614b9a565b8060005b83811015613f31578151613f188882613df5565b9750613f2383614c10565b925050600181019050613f04565b5085935050505092915050565b613f4781614d9e565b82525050565b613f5681614daa565b82525050565b6000613f6782614be0565b613f718185614c4a565b9350613f81818560208601614e21565b613f8a81615043565b840191505092915050565b613f9e81614e00565b82525050565b6000613faf82614beb565b613fb98185614c5b565b9350613fc9818560208601614e21565b613fd281615043565b840191505092915050565b6000613fe882614beb565b613ff28185614c6c565b9350614002818560208601614e21565b80840191505092915050565b6000815461401b81614e7e565b6140258186614c6c565b94506001821660008114614040576001811461405157614084565b60ff19831686528186019350614084565b61405a85614baa565b60005b8381101561407c5781548189015260018201915060208101905061405d565b838801955050505b50505092915050565b600061409a603483614c5b565b91506140a582615061565b604082019050919050565b60006140bd602883614c5b565b91506140c8826150b0565b604082019050919050565b60006140e0602c83614c5b565b91506140eb826150ff565b604082019050919050565b6000614103601683614c5b565b915061410e8261514e565b602082019050919050565b6000614126602b83614c5b565b915061413182615177565b604082019050919050565b6000614149601683614c5b565b9150614154826151c6565b602082019050919050565b600061416c602683614c5b565b9150614177826151ef565b604082019050919050565b600061418f602983614c5b565b915061419a8261523e565b604082019050919050565b60006141b2601c83614c5b565b91506141bd8261528d565b602082019050919050565b60006141d5601683614c5b565b91506141e0826152b6565b602082019050919050565b60006141f8601283614c5b565b9150614203826152df565b602082019050919050565b600061421b601683614c5b565b915061422682615308565b602082019050919050565b600061423e602583614c5b565b915061424982615331565b604082019050919050565b6000614261603283614c5b565b915061426c82615380565b604082019050919050565b6000614284602a83614c5b565b915061428f826153cf565b604082019050919050565b60006142a7603f83614c5b565b91506142b28261541e565b604082019050919050565b60006142ca600583614c6c565b91506142d58261546d565b600582019050919050565b60006142ed602083614c5b565b91506142f882615496565b602082019050919050565b6000614310601a83614c5b565b915061431b826154bf565b602082019050919050565b6000614333601683614c5b565b915061433e826154e8565b602082019050919050565b6000614356602983614c5b565b915061436182615511565b604082019050919050565b6000614379602983614c5b565b915061438482615560565b604082019050919050565b600061439c602883614c5b565b91506143a7826155af565b604082019050919050565b60a0820160008201516143c86000850182613e0d565b5060208201516143db602085018261441a565b5060408201516143ee604085018261441a565b506060820151614401606085018261441a565b506080820151614414608085018261441a565b50505050565b61442381614df6565b82525050565b61443281614df6565b82525050565b61444961444482614df6565b614f2a565b82525050565b600061445b828561400e565b91506144678284613fdd565b9150614472826142bd565b91508190509392505050565b600061448a8285614438565b60208201915061449a8284614438565b6020820191508190509392505050565b60006020820190506144bf6000830184613e1c565b92915050565b600060a0820190506144da6000830188613e1c565b6144e76020830187613e1c565b81810360408301526144f98186613ee0565b9050818103606083015261450d8185613ee0565b905081810360808301526145218184613f5c565b90509695505050505050565b60006060820190506145426000830186613e1c565b61454f6020830185613e1c565b61455c6040830184614429565b949350505050565b600060a0820190506145796000830188613e1c565b6145866020830187613e1c565b6145936040830186614429565b6145a06060830185614429565b81810360808301526145b28184613f5c565b90509695505050505050565b60006060820190506145d36000830186613e1c565b6145e06020830185613f95565b6145ed6040830184613f95565b949350505050565b600060608201905061460a6000830186613e1c565b6146176020830185613f95565b6146246040830184614429565b949350505050565b60006040820190506146416000830185613e1c565b61464e6020830184614429565b9392505050565b600060608201905061466a6000830186613e1c565b6146776020830185614429565b6146846040830184613f95565b949350505050565b600060a0820190506146a16000830188613e1c565b6146ae6020830187614429565b6146bb6040830186614429565b6146c86060830185614429565b6146d56080830184614429565b9695505050505050565b600060208201905081810360008301526146f98184613e2b565b905092915050565b6000610100820190506147176000830184613e89565b92915050565b600060208201905081810360008301526147378184613ee0565b905092915050565b600060408201905081810360008301526147598185613ee0565b9050818103602083015261476d8184613ee0565b90509392505050565b600060208201905061478b6000830184613f3e565b92915050565b60006020820190506147a66000830184613f4d565b92915050565b600060208201905081810360008301526147c68184613fa4565b905092915050565b600060208201905081810360008301526147e78161408d565b9050919050565b60006020820190508181036000830152614807816140b0565b9050919050565b60006020820190508181036000830152614827816140d3565b9050919050565b60006020820190508181036000830152614847816140f6565b9050919050565b6000602082019050818103600083015261486781614119565b9050919050565b600060208201905081810360008301526148878161413c565b9050919050565b600060208201905081810360008301526148a78161415f565b9050919050565b600060208201905081810360008301526148c781614182565b9050919050565b600060208201905081810360008301526148e7816141a5565b9050919050565b60006020820190508181036000830152614907816141c8565b9050919050565b60006020820190508181036000830152614927816141eb565b9050919050565b600060208201905081810360008301526149478161420e565b9050919050565b6000602082019050818103600083015261496781614231565b9050919050565b6000602082019050818103600083015261498781614254565b9050919050565b600060208201905081810360008301526149a781614277565b9050919050565b600060208201905081810360008301526149c78161429a565b9050919050565b600060208201905081810360008301526149e7816142e0565b9050919050565b60006020820190508181036000830152614a0781614303565b9050919050565b60006020820190508181036000830152614a2781614326565b9050919050565b60006020820190508181036000830152614a4781614349565b9050919050565b60006020820190508181036000830152614a678161436c565b9050919050565b60006020820190508181036000830152614a878161438f565b9050919050565b6000602082019050614aa36000830184614429565b92915050565b6000604082019050614abe6000830185614429565b614acb6020830184614429565b9392505050565b6000614adc614aed565b9050614ae88282614eb0565b919050565b6000604051905090565b600067ffffffffffffffff821115614b1257614b11614ff2565b5b602082029050602081019050919050565b600067ffffffffffffffff821115614b3e57614b3d614ff2565b5b602082029050602081019050919050565b600067ffffffffffffffff821115614b6a57614b69614ff2565b5b614b7382615043565b9050602081019050919050565b6000819050602082019050919050565b6000819050919050565b6000819050602082019050919050565b60008190508160005260206000209050919050565b600081519050919050565b600060089050919050565b600081519050919050565b600081519050919050565b600081519050919050565b6000602082019050919050565b6000602082019050919050565b6000602082019050919050565b600082825260208201905092915050565b600081905092915050565b600082825260208201905092915050565b600082825260208201905092915050565b600082825260208201905092915050565b600081905092915050565b6000614c8282614df6565b9150614c8d83614df6565b9250827fffffffffffffffffffffffffffffffffffffffffffffffffffffffffffffffff03821115614cc257614cc1614f65565b5b828201905092915050565b6000614cd882614df6565b9150614ce383614df6565b925082614cf357614cf2614f94565b5b828204905092915050565b6000614d0982614df6565b9150614d1483614df6565b9250817fffffffffffffffffffffffffffffffffffffffffffffffffffffffffffffffff0483118215151615614d4d57614d4c614f65565b5b828202905092915050565b6000614d6382614df6565b9150614d6e83614df6565b925082821015614d8157614d80614f65565b5b828203905092915050565b6000614d9782614dd6565b9050919050565b60008115159050919050565b60007fffffffff0000000000000000000000000000000000000000000000000000000082169050919050565b600073ffffffffffffffffffffffffffffffffffffffff82169050919050565b6000819050919050565b6000614e0b82614df6565b9050919050565b82818337600083830152505050565b60005b83811015614e3f578082015181840152602081019050614e24565b83811115614e4e576000848401525b50505050565b6000614e5f82614df6565b91506000821415614e7357614e72614f65565b5b600182039050919050565b60006002820490506001821680614e9657607f821691505b60208210811415614eaa57614ea9614fc3565b5b50919050565b614eb982615043565b810181811067ffffffffffffffff82111715614ed857614ed7614ff2565b5b80604052505050565b6000614eec82614df6565b91507fffffffffffffffffffffffffffffffffffffffffffffffffffffffffffffffff821415614f1f57614f1e614f65565b5b600182019050919050565b6000819050919050565b6000614f3f82614df6565b9150614f4a83614df6565b925082614f5a57614f59614f94565b5b828206905092915050565b7f4e487b7100000000000000000000000000000000000000000000000000000000600052601160045260246000fd5b7f4e487b7100000000000000000000000000000000000000000000000000000000600052601260045260246000fd5b7f4e487b7100000000000000000000000000000000000000000000000000000000600052602260045260246000fd5b7f4e487b7100000000000000000000000000000000000000000000000000000000600052604160045260246000fd5b600060033d11156150405760046000803e61503d600051615054565b90505b90565b6000601f19601f8301169050919050565b60008160e01c9050919050565b7f455243313135353a207472616e7366657220746f206e6f6e204552433131353560008201527f526563656976657220696d706c656d656e746572000000000000000000000000602082015250565b7f455243313135353a204552433131353552656365697665722072656a6563746560008201527f6420746f6b656e73000000000000000000000000000000000000000000000000602082015250565b7f4e6f7420656e6f7567682062616c616e636520746f2065786368616e6765206260008201527f6f6e6420746f20746f6b656e0000000000000000000000000000000000000000602082015250565b7f796f75206d7573742070617920302e31204d4154494300000000000000000000600082015250565b7f455243313135353a2062616c616e636520717565727920666f7220746865207a60008201527f65726f2061646472657373000000000000000000000000000000000000000000602082015250565b7f4e6f7420656e6f756768206e6674206465706f73697400000000000000000000600082015250565b7f4f776e61626c653a206e6577206f776e657220697320746865207a65726f206160008201527f6464726573730000000000000000000000000000000000000000000000000000602082015250565b7f455243313135353a2063616c6c6572206973206e6f74206f776e6572206e6f7260008201527f20617070726f7665640000000000000000000000000000000000000000000000602082015250565b7f746f6b656e4964206d757374206265206c6f776572207468616e203800000000600082015250565b7f6e6f7420656e6f756768206e66742062616c616e636500000000000000000000600082015250565b7f4e6f7420656e6f7567682062616c616e63650000000000000000000000000000600082015250565b7f796f752063616e27742062757920796f7572206e667400000000000000000000600082015250565b7f455243313135353a207472616e7366657220746f20746865207a65726f20616460008201527f6472657373000000000000000000000000000000000000000000000000000000602082015250565b7f455243313135353a207472616e736665722063616c6c6572206973206e6f742060008201527f6f776e6572206e6f7220617070726f7665640000000000000000000000000000602082015250565b7f455243313135353a20696e73756666696369656e742062616c616e636520666f60008201527f72207472616e7366657200000000000000000000000000000000000000000000602082015250565b7f5468652077697468647261776c20616d6f756e7420636f756c646e277420626560008201527f20686967686572207468616e20796f757220746f74616c2062616c616e636500602082015250565b7f2e6a736f6e000000000000000000000000000000000000000000000000000000600082015250565b7f4f776e61626c653a2063616c6c6572206973206e6f7420746865206f776e6572600082015250565b7f6e66744964206d757374206265206c6f776572207468616e2038000000000000600082015250565b7f6f72646572496420646f6573206e6f7420657869737400000000000000000000600082015250565b7f455243313135353a2073657474696e6720617070726f76616c2073746174757360008201527f20666f722073656c660000000000000000000000000000000000000000000000602082015250565b7f455243313135353a206163636f756e747320616e6420696473206c656e67746860008201527f206d69736d617463680000000000000000000000000000000000000000000000602082015250565b7f455243313135353a2069647320616e6420616d6f756e7473206c656e6774682060008201527f6d69736d61746368000000000000000000000000000000000000000000000000602082015250565b600060443d101561560e57615691565b615616614aed565b60043d036004823e80513d602482011167ffffffffffffffff8211171561563e575050615691565b808201805167ffffffffffffffff81111561565c5750505050615691565b80602083010160043d038501811115615679575050505050615691565b61568882602001850186614eb0565b82955050505050505b90565b61569d81614d8c565b81146156a857600080fd5b50565b6156b481614d9e565b81146156bf57600080fd5b50565b6156cb81614daa565b81146156d657600080fd5b50565b6156e281614df6565b81146156ed57600080fd5b5056fea2646970667358221220a4287aab53ce006b1d5ec070ae54611e02881f28aa9b03e2a81af82537defd6364736f6c63430008040033",
  "linkReferences": {},
  "deployedLinkReferences": {}
}