{
  "_format": "hh-sol-artifact-1",
  "contractName": "MarioNFT",
  "sourceName": "contracts/MarioNFT.sol",
  "abi": [
    {
      "inputs": [
        {
          "internalType": "string",
          "name": "_baseURI",
          "type": "string"
        },
        {
          "internalType": "address",
          "name": "_abcTokenAddress",
          "type": "address"
        }
      ],
      "stateMutability": "nonpayable",
      "type": "constructor"
    },
    {
      "anonymous": false,
      "inputs": [
        {
          "indexed": true,
          "internalType": "address",
          "name": "account",
          "type": "address"
        },
        {
          "indexed": true,
          "internalType": "address",
          "name": "operator",
          "type": "address"
        },
        {
          "indexed": false,
          "internalType": "bool",
          "name": "approved",
          "type": "bool"
        }
      ],
      "name": "ApprovalForAll",
      "type": "event"
    },
    {
      "anonymous": false,
      "inputs": [
        {
          "indexed": true,
          "internalType": "address",
          "name": "_buyer",
          "type": "address"
        },
        {
          "indexed": true,
          "internalType": "uint256",
          "name": "orderId",
          "type": "uint256"
        },
        {
          "indexed": false,
          "internalType": "uint256",
          "name": "nftId",
          "type": "uint256"
        },
        {
          "indexed": false,
          "internalType": "uint256",
          "name": "price",
          "type": "uint256"
        }
      ],
      "name": "BuyNftEvent",
      "type": "event"
    },
    {
      "anonymous": false,
      "inputs": [
        {
          "indexed": false,
          "internalType": "address",
          "name": "_from",
          "type": "address"
        },
        {
          "indexed": true,
          "internalType": "address",
          "name": "_to",
          "type": "address"
        },
        {
          "indexed": false,
          "internalType": "uint256",
          "name": "nftId",
          "type": "uint256"
        },
        {
          "indexed": false,
          "internalType": "uint256",
          "name": "abcTokenAmount",
          "type": "uint256"
        }
      ],
      "name": "LottoEvent",
      "type": "event"
    },
    {
      "anonymous": false,
      "inputs": [
        {
          "indexed": true,
          "internalType": "address",
          "name": "previousOwner",
          "type": "address"
        },
        {
          "indexed": true,
          "internalType": "address",
          "name": "newOwner",
          "type": "address"
        }
      ],
      "name": "OwnershipTransferred",
      "type": "event"
    },
    {
      "anonymous": false,
      "inputs": [
        {
          "indexed": true,
          "internalType": "address",
          "name": "_seller",
          "type": "address"
        },
        {
          "indexed": true,
          "internalType": "uint256",
          "name": "orderId",
          "type": "uint256"
        },
        {
          "indexed": false,
          "internalType": "uint256",
          "name": "nftId",
          "type": "uint256"
        },
        {
          "indexed": false,
          "internalType": "uint256",
          "name": "price",
          "type": "uint256"
        }
      ],
      "name": "SellNftEvent",
      "type": "event"
    },
    {
      "anonymous": false,
      "inputs": [
        {
          "indexed": true,
          "internalType": "address",
          "name": "operator",
          "type": "address"
        },
        {
          "indexed": true,
          "internalType": "address",
          "name": "from",
          "type": "address"
        },
        {
          "indexed": true,
          "internalType": "address",
          "name": "to",
          "type": "address"
        },
        {
          "indexed": false,
          "internalType": "uint256[]",
          "name": "ids",
          "type": "uint256[]"
        },
        {
          "indexed": false,
          "internalType": "uint256[]",
          "name": "values",
          "type": "uint256[]"
        }
      ],
      "name": "TransferBatch",
      "type": "event"
    },
    {
      "anonymous": false,
      "inputs": [
        {
          "indexed": true,
          "internalType": "address",
          "name": "operator",
          "type": "address"
        },
        {
          "indexed": true,
          "internalType": "address",
          "name": "from",
          "type": "address"
        },
        {
          "indexed": true,
          "internalType": "address",
          "name": "to",
          "type": "address"
        },
        {
          "indexed": false,
          "internalType": "uint256",
          "name": "id",
          "type": "uint256"
        },
        {
          "indexed": false,
          "internalType": "uint256",
          "name": "value",
          "type": "uint256"
        }
      ],
      "name": "TransferSingle",
      "type": "event"
    },
    {
      "anonymous": false,
      "inputs": [
        {
          "indexed": false,
          "internalType": "string",
          "name": "value",
          "type": "string"
        },
        {
          "indexed": true,
          "internalType": "uint256",
          "name": "id",
          "type": "uint256"
        }
      ],
      "name": "URI",
      "type": "event"
    },
    {
      "inputs": [],
      "name": "abcTokenAddress",
      "outputs": [
        {
          "internalType": "address",
          "name": "",
          "type": "address"
        }
      ],
      "stateMutability": "view",
      "type": "function"
    },
    {
      "inputs": [
        {
          "internalType": "address",
          "name": "account",
          "type": "address"
        },
        {
          "internalType": "uint256",
          "name": "id",
          "type": "uint256"
        }
      ],
      "name": "balanceOf",
      "outputs": [
        {
          "internalType": "uint256",
          "name": "",
          "type": "uint256"
        }
      ],
      "stateMutability": "view",
      "type": "function"
    },
    {
      "inputs": [
        {
          "internalType": "address[]",
          "name": "accounts",
          "type": "address[]"
        },
        {
          "internalType": "uint256[]",
          "name": "ids",
          "type": "uint256[]"
        }
      ],
      "name": "balanceOfBatch",
      "outputs": [
        {
          "internalType": "uint256[]",
          "name": "",
          "type": "uint256[]"
        }
      ],
      "stateMutability": "view",
      "type": "function"
    },
    {
      "inputs": [],
      "name": "baseURI",
      "outputs": [
        {
          "internalType": "string",
          "name": "",
          "type": "string"
        }
      ],
      "stateMutability": "view",
      "type": "function"
    },
    {
      "inputs": [
        {
          "internalType": "uint256",
          "name": "orderId",
          "type": "uint256"
        },
        {
          "internalType": "uint256",
          "name": "price",
          "type": "uint256"
        }
      ],
      "name": "buyNft",
      "outputs": [],
      "stateMutability": "nonpayable",
      "type": "function"
    },
    {
      "inputs": [],
      "name": "checkSender",
      "outputs": [
        {
          "internalType": "address",
          "name": "",
          "type": "address"
        }
      ],
      "stateMutability": "view",
      "type": "function"
    },
    {
      "inputs": [],
      "name": "getAllNftCurrentAmount",
      "outputs": [
        {
          "internalType": "uint256[8]",
          "name": "",
          "type": "uint256[8]"
        }
      ],
      "stateMutability": "view",
      "type": "function"
    },
    {
      "inputs": [],
      "name": "getAllNftTotalAmount",
      "outputs": [
        {
          "internalType": "uint256[8]",
          "name": "",
          "type": "uint256[8]"
        }
      ],
      "stateMutability": "view",
      "type": "function"
    },
    {
      "inputs": [],
      "name": "getAllSellingNftList",
      "outputs": [
        {
          "components": [
            {
              "internalType": "address",
              "name": "owner",
              "type": "address"
            },
            {
              "internalType": "uint256",
              "name": "orderId",
              "type": "uint256"
            },
            {
              "internalType": "uint256",
              "name": "nftId",
              "type": "uint256"
            },
            {
              "internalType": "uint256",
              "name": "price",
              "type": "uint256"
            },
            {
              "internalType": "uint256",
              "name": "date",
              "type": "uint256"
            }
          ],
          "internalType": "struct MarioNFT.SellOrder[]",
          "name": "",
          "type": "tuple[]"
        }
      ],
      "stateMutability": "view",
      "type": "function"
    },
    {
      "inputs": [],
      "name": "getContractBalance",
      "outputs": [
        {
          "internalType": "uint256",
          "name": "",
          "type": "uint256"
        }
      ],
      "stateMutability": "view",
      "type": "function"
    },
    {
      "inputs": [
        {
          "internalType": "uint256",
          "name": "nftId",
          "type": "uint256"
        }
      ],
      "name": "getNft",
      "outputs": [],
      "stateMutability": "nonpayable",
      "type": "function"
    },
    {
      "inputs": [
        {
          "internalType": "uint256",
          "name": "nftId",
          "type": "uint256"
        }
      ],
      "name": "getNftCurrentAmount",
      "outputs": [
        {
          "internalType": "uint256",
          "name": "",
          "type": "uint256"
        }
      ],
      "stateMutability": "view",
      "type": "function"
    },
    {
      "inputs": [],
      "name": "getNftOrTokenByLotto",
      "outputs": [],
      "stateMutability": "payable",
      "type": "function"
    },
    {
      "inputs": [],
      "name": "getSell",
      "outputs": [
        {
          "internalType": "uint256[]",
          "name": "",
          "type": "uint256[]"
        }
      ],
      "stateMutability": "view",
      "type": "function"
    },
    {
      "inputs": [
        {
          "internalType": "address",
          "name": "_address",
          "type": "address"
        },
        {
          "internalType": "uint256",
          "name": "nftId",
          "type": "uint256"
        }
      ],
      "name": "getSellerNftBalance",
      "outputs": [
        {
          "internalType": "uint256",
          "name": "",
          "type": "uint256"
        }
      ],
      "stateMutability": "view",
      "type": "function"
    },
    {
      "inputs": [],
      "name": "getSellerTokenBalance",
      "outputs": [
        {
          "internalType": "uint256",
          "name": "",
          "type": "uint256"
        }
      ],
      "stateMutability": "view",
      "type": "function"
    },
    {
      "inputs": [],
      "name": "getSellingNftList",
      "outputs": [
        {
          "components": [
            {
              "internalType": "address",
              "name": "owner",
              "type": "address"
            },
            {
              "internalType": "uint256",
              "name": "orderId",
              "type": "uint256"
            },
            {
              "internalType": "uint256",
              "name": "nftId",
              "type": "uint256"
            },
            {
              "internalType": "uint256",
              "name": "price",
              "type": "uint256"
            },
            {
              "internalType": "uint256",
              "name": "date",
              "type": "uint256"
            }
          ],
          "internalType": "struct MarioNFT.SellOrder[]",
          "name": "",
          "type": "tuple[]"
        }
      ],
      "stateMutability": "view",
      "type": "function"
    },
    {
      "inputs": [
        {
          "internalType": "address",
          "name": "account",
          "type": "address"
        },
        {
          "internalType": "address",
          "name": "operator",
          "type": "address"
        }
      ],
      "name": "isApprovedForAll",
      "outputs": [
        {
          "internalType": "bool",
          "name": "",
          "type": "bool"
        }
      ],
      "stateMutability": "view",
      "type": "function"
    },
    {
      "inputs": [
        {
          "internalType": "uint256",
          "name": "",
          "type": "uint256"
        }
      ],
      "name": "nftSoldMap",
      "outputs": [
        {
          "internalType": "address",
          "name": "owner",
          "type": "address"
        },
        {
          "internalType": "uint256",
          "name": "orderId",
          "type": "uint256"
        },
        {
          "internalType": "uint256",
          "name": "nftId",
          "type": "uint256"
        },
        {
          "internalType": "uint256",
          "name": "price",
          "type": "uint256"
        },
        {
          "internalType": "uint256",
          "name": "date",
          "type": "uint256"
        }
      ],
      "stateMutability": "view",
      "type": "function"
    },
    {
      "inputs": [
        {
          "internalType": "address",
          "name": "operator",
          "type": "address"
        },
        {
          "internalType": "address",
          "name": "from",
          "type": "address"
        },
        {
          "internalType": "uint256",
          "name": "id",
          "type": "uint256"
        },
        {
          "internalType": "uint256",
          "name": "value",
          "type": "uint256"
        },
        {
          "internalType": "bytes",
          "name": "data",
          "type": "bytes"
        }
      ],
      "name": "onERC1155Received",
      "outputs": [
        {
          "internalType": "bytes4",
          "name": "",
          "type": "bytes4"
        }
      ],
      "stateMutability": "nonpayable",
      "type": "function"
    },
    {
      "inputs": [],
      "name": "owner",
      "outputs": [
        {
          "internalType": "address",
          "name": "",
          "type": "address"
        }
      ],
      "stateMutability": "view",
      "type": "function"
    },
    {
      "inputs": [],
      "name": "renounceOwnership",
      "outputs": [],
      "stateMutability": "nonpayable",
      "type": "function"
    },
    {
      "inputs": [
        {
          "internalType": "address",
          "name": "from",
          "type": "address"
        },
        {
          "internalType": "address",
          "name": "to",
          "type": "address"
        },
        {
          "internalType": "uint256[]",
          "name": "ids",
          "type": "uint256[]"
        },
        {
          "internalType": "uint256[]",
          "name": "amounts",
          "type": "uint256[]"
        },
        {
          "internalType": "bytes",
          "name": "data",
          "type": "bytes"
        }
      ],
      "name": "safeBatchTransferFrom",
      "outputs": [],
      "stateMutability": "nonpayable",
      "type": "function"
    },
    {
      "inputs": [
        {
          "internalType": "address",
          "name": "from",
          "type": "address"
        },
        {
          "internalType": "address",
          "name": "to",
          "type": "address"
        },
        {
          "internalType": "uint256",
          "name": "id",
          "type": "uint256"
        },
        {
          "internalType": "uint256",
          "name": "amount",
          "type": "uint256"
        },
        {
          "internalType": "bytes",
          "name": "data",
          "type": "bytes"
        }
      ],
      "name": "safeTransferFrom",
      "outputs": [],
      "stateMutability": "nonpayable",
      "type": "function"
    },
    {
      "inputs": [
        {
          "internalType": "uint256",
          "name": "nftId",
          "type": "uint256"
        },
        {
          "internalType": "uint256",
          "name": "price",
          "type": "uint256"
        }
      ],
      "name": "sellNft",
      "outputs": [],
      "stateMutability": "nonpayable",
      "type": "function"
    },
    {
      "inputs": [
        {
          "internalType": "address",
          "name": "operator",
          "type": "address"
        },
        {
          "internalType": "bool",
          "name": "approved",
          "type": "bool"
        }
      ],
      "name": "setApprovalForAll",
      "outputs": [],
      "stateMutability": "nonpayable",
      "type": "function"
    },
    {
      "inputs": [
        {
          "internalType": "bytes4",
          "name": "interfaceId",
          "type": "bytes4"
        }
      ],
      "name": "supportsInterface",
      "outputs": [
        {
          "internalType": "bool",
          "name": "",
          "type": "bool"
        }
      ],
      "stateMutability": "view",
      "type": "function"
    },
    {
      "inputs": [
        {
          "internalType": "address",
          "name": "newOwner",
          "type": "address"
        }
      ],
      "name": "transferOwnership",
      "outputs": [],
      "stateMutability": "nonpayable",
      "type": "function"
    },
    {
      "inputs": [
        {
          "internalType": "uint256",
          "name": "tokenId",
          "type": "uint256"
        }
      ],
      "name": "uri",
      "outputs": [
        {
          "internalType": "string",
          "name": "",
          "type": "string"
        }
      ],
      "stateMutability": "view",
      "type": "function"
    },
    {
      "inputs": [
        {
          "internalType": "uint256",
          "name": "amount",
          "type": "uint256"
        }
      ],
      "name": "withdraw",
      "outputs": [],
      "stateMutability": "nonpayable",
      "type": "function"
    }
  ],
  "bytecode": "0x60806040526000600c556000600d553480156200001b57600080fd5b50604051620068a2380380620068a2833981810160405281019062000041919062000a81565b816200005381620001f860201b60201c565b5062000074620000686200021460201b60201c565b6200021c60201b60201c565b81600a90805190602001906200008c92919062000905565b5080600b60006101000a81548173ffffffffffffffffffffffffffffffffffffffff021916908373ffffffffffffffffffffffffffffffffffffffff160217905550620000de620002e260201b60201c565b620000ee6200039a60201b60201c565b620001133060016064604051806020016040528060008152506200045260201b60201c565b620001383060026064604051806020016040528060008152506200045260201b60201c565b6200015d3060036046604051806020016040528060008152506200045260201b60201c565b620001823060046046604051806020016040528060008152506200045260201b60201c565b620001a7306005601e604051806020016040528060008152506200045260201b60201c565b620001cc306006601e604051806020016040528060008152506200045260201b60201c565b620001f030600780604051806020016040528060008152506200045260201b60201c565b5050620011a2565b80600290805190602001906200021092919062000905565b5050565b600033905090565b6000600360009054906101000a900473ffffffffffffffffffffffffffffffffffffffff16905081600360006101000a81548173ffffffffffffffffffffffffffffffffffffffff021916908373ffffffffffffffffffffffffffffffffffffffff1602179055508173ffffffffffffffffffffffffffffffffffffffff168173ffffffffffffffffffffffffffffffffffffffff167f8be0079c531659141344cd1fd0a4f28419497f9722a3daafe3b4186f6b6457e060405160405180910390a35050565b600a600460006001815260200190815260200160002081905550600a600460006002815260200190815260200160002081905550600f600460006003815260200190815260200160002081905550601460046000600481526020019081526020016000208190555060236004600060058152602001908152602001600020819055506023600460006006815260200190815260200160002081905550604b600460006007815260200190815260200160002081905550565b6064600e600060018152602001908152602001600020819055506064600e600060028152602001908152602001600020819055506046600e600060038152602001908152602001600020819055506046600e60006004815260200190815260200160002081905550601e600e60006005815260200190815260200160002081905550601e600e600060068152602001908152602001600020819055506007600e60006007815260200190815260200160002081905550565b600073ffffffffffffffffffffffffffffffffffffffff168473ffffffffffffffffffffffffffffffffffffffff161415620004c5576040517f08c379a0000000000000000000000000000000000000000000000000000000008152600401620004bc9062000cc0565b60405180910390fd5b6000620004d76200021460201b60201c565b90506200051081600087620004f2886200061760201b60201c565b62000503886200061760201b60201c565b87620006e060201b60201c565b8260008086815260200190815260200160002060008773ffffffffffffffffffffffffffffffffffffffff1673ffffffffffffffffffffffffffffffffffffffff168152602001908152602001600020600082825462000571919062000da6565b925050819055508473ffffffffffffffffffffffffffffffffffffffff16600073ffffffffffffffffffffffffffffffffffffffff168273ffffffffffffffffffffffffffffffffffffffff167fc3d58168c5ae7397731d063d5bbf3d657854427343f4c083240f7aacaa2d0f628787604051620005f192919062000ce2565b60405180910390a46200061081600087878787620006e860201b60201c565b5050505050565b60606000600167ffffffffffffffff8111156200065d577f4e487b7100000000000000000000000000000000000000000000000000000000600052604160045260246000fd5b6040519080825280602002602001820160405280156200068c5781602001602082028036833780820191505090505b5090508281600081518110620006cb577f4e487b7100000000000000000000000000000000000000000000000000000000600052603260045260246000fd5b60200260200101818152505080915050919050565b505050505050565b620007148473ffffffffffffffffffffffffffffffffffffffff16620008f260201b62001f0f1760201c565b15620008ea578373ffffffffffffffffffffffffffffffffffffffff1663f23a6e6187878686866040518663ffffffff1660e01b81526004016200075d95949392919062000bf4565b602060405180830381600087803b1580156200077857600080fd5b505af1925050508015620007ac57506040513d601f19601f82011682018060405250810190620007a9919062000a55565b60015b6200085e57620007bb62000f9c565b806308c379a014156200081f5750620007d3620010cc565b80620007e0575062000821565b806040517f08c379a000000000000000000000000000000000000000000000000000000000815260040162000816919062000c58565b60405180910390fd5b505b6040517f08c379a0000000000000000000000000000000000000000000000000000000008152600401620008559062000c7c565b60405180910390fd5b63f23a6e6160e01b7bffffffffffffffffffffffffffffffffffffffffffffffffffffffff1916817bffffffffffffffffffffffffffffffffffffffffffffffffffffffff191614620008e8576040517f08c379a0000000000000000000000000000000000000000000000000000000008152600401620008df9062000c9e565b60405180910390fd5b505b505050505050565b600080823b905060008111915050919050565b828054620009139062000ea3565b90600052602060002090601f01602090048101928262000937576000855562000983565b82601f106200095257805160ff191683800117855562000983565b8280016001018555821562000983579182015b828111156200098257825182559160200191906001019062000965565b5b50905062000992919062000996565b5090565b5b80821115620009b157600081600090555060010162000997565b5090565b6000620009cc620009c68462000d38565b62000d0f565b905082815260208101848484011115620009e557600080fd5b620009f284828562000e6d565b509392505050565b60008151905062000a0b816200116e565b92915050565b60008151905062000a228162001188565b92915050565b600082601f83011262000a3a57600080fd5b815162000a4c848260208601620009b5565b91505092915050565b60006020828403121562000a6857600080fd5b600062000a788482850162000a11565b91505092915050565b6000806040838503121562000a9557600080fd5b600083015167ffffffffffffffff81111562000ab057600080fd5b62000abe8582860162000a28565b925050602062000ad185828601620009fa565b9150509250929050565b62000ae68162000e03565b82525050565b600062000af98262000d6e565b62000b05818562000d84565b935062000b1781856020860162000e6d565b62000b228162000fc1565b840191505092915050565b600062000b3a8262000d79565b62000b46818562000d95565b935062000b5881856020860162000e6d565b62000b638162000fc1565b840191505092915050565b600062000b7d60348362000d95565b915062000b8a8262000fdf565b604082019050919050565b600062000ba460288362000d95565b915062000bb1826200102e565b604082019050919050565b600062000bcb60218362000d95565b915062000bd8826200107d565b604082019050919050565b62000bee8162000e63565b82525050565b600060a08201905062000c0b600083018862000adb565b62000c1a602083018762000adb565b62000c29604083018662000be3565b62000c38606083018562000be3565b818103608083015262000c4c818462000aec565b90509695505050505050565b6000602082019050818103600083015262000c74818462000b2d565b905092915050565b6000602082019050818103600083015262000c978162000b6e565b9050919050565b6000602082019050818103600083015262000cb98162000b95565b9050919050565b6000602082019050818103600083015262000cdb8162000bbc565b9050919050565b600060408201905062000cf9600083018562000be3565b62000d08602083018462000be3565b9392505050565b600062000d1b62000d2e565b905062000d29828262000ed9565b919050565b6000604051905090565b600067ffffffffffffffff82111562000d565762000d5562000f6d565b5b62000d618262000fc1565b9050602081019050919050565b600081519050919050565b600081519050919050565b600082825260208201905092915050565b600082825260208201905092915050565b600062000db38262000e63565b915062000dc08362000e63565b9250827fffffffffffffffffffffffffffffffffffffffffffffffffffffffffffffffff0382111562000df85762000df762000f0f565b5b828201905092915050565b600062000e108262000e43565b9050919050565b60007fffffffff0000000000000000000000000000000000000000000000000000000082169050919050565b600073ffffffffffffffffffffffffffffffffffffffff82169050919050565b6000819050919050565b60005b8381101562000e8d57808201518184015260208101905062000e70565b8381111562000e9d576000848401525b50505050565b6000600282049050600182168062000ebc57607f821691505b6020821081141562000ed35762000ed262000f3e565b5b50919050565b62000ee48262000fc1565b810181811067ffffffffffffffff8211171562000f065762000f0562000f6d565b5b80604052505050565b7f4e487b7100000000000000000000000000000000000000000000000000000000600052601160045260246000fd5b7f4e487b7100000000000000000000000000000000000000000000000000000000600052602260045260246000fd5b7f4e487b7100000000000000000000000000000000000000000000000000000000600052604160045260246000fd5b600060033d111562000fbe5760046000803e62000fbb60005162000fd2565b90505b90565b6000601f19601f8301169050919050565b60008160e01c9050919050565b7f455243313135353a207472616e7366657220746f206e6f6e204552433131353560008201527f526563656976657220696d706c656d656e746572000000000000000000000000602082015250565b7f455243313135353a204552433131353552656365697665722072656a6563746560008201527f6420746f6b656e73000000000000000000000000000000000000000000000000602082015250565b7f455243313135353a206d696e7420746f20746865207a65726f2061646472657360008201527f7300000000000000000000000000000000000000000000000000000000000000602082015250565b600060443d1015620010de576200116b565b620010e862000d2e565b60043d036004823e80513d602482011167ffffffffffffffff82111715620011125750506200116b565b808201805167ffffffffffffffff8111156200113257505050506200116b565b80602083010160043d038501811115620011515750505050506200116b565b620011628260200185018662000ed9565b82955050505050505b90565b620011798162000e03565b81146200118557600080fd5b50565b620011938162000e17565b81146200119f57600080fd5b50565b6156f080620011b26000396000f3fe6080604052600436106101cc5760003560e01c80636c0360eb116100f7578063bf76dd3711610095578063f1fe7c8311610064578063f1fe7c8314610682578063f23a6e61146106ad578063f242432a146106ea578063f2fde38b14610713576101cc565b8063bf76dd37146105e5578063e985e9c5146105ef578063ee4e2bb51461062c578063efaf057814610657576101cc565b8063715018a6116100d1578063715018a61461053d5780638da5cb5b146105545780639330034c1461057f578063a22cb465146105bc576101cc565b80636c0360eb146104a65780636cb35120146104d15780636f9fb98a14610512576101cc565b80632eb2c2d61161016f57806347fb0bed1161013e57806347fb0bed146103ec5780634e1273f4146104175780635208eb0914610454578063556f80841461047d576101cc565b80632eb2c2d61461034457806330f8fc4b1461036d57806341f63bfd146103985780634495ce4a146103c1576101cc565b806312369737116101ab57806312369737146102885780631af526b0146102c5578063208b8591146102f05780632e1a7d4d1461031b576101cc565b8062fdd58e146101d157806301ffc9a71461020e5780630e89341c1461024b575b600080fd5b3480156101dd57600080fd5b506101f860048036038101906101f39190613bf6565b61073c565b6040516102059190614a58565b60405180910390f35b34801561021a57600080fd5b5061023560048036038101906102309190613cc7565b610805565b6040516102429190614740565b60405180910390f35b34801561025757600080fd5b50610272600480360381019061026d9190613d19565b6108e7565b60405161027f9190614776565b60405180910390f35b34801561029457600080fd5b506102af60048036038101906102aa9190613d19565b61091b565b6040516102bc9190614a58565b60405180910390f35b3480156102d157600080fd5b506102da61092e565b6040516102e791906146e7565b60405180910390f35b3480156102fc57600080fd5b506103056109c3565b60405161031291906146cb565b60405180910390f35b34801561032757600080fd5b50610342600480360381019061033d9190613d19565b610a49565b005b34801561035057600080fd5b5061036b600480360381019061036691906139da565b610b2e565b005b34801561037957600080fd5b50610382610bcf565b60405161038f91906146a9565b60405180910390f35b3480156103a457600080fd5b506103bf60048036038101906103ba9190613d19565b610da9565b005b3480156103cd57600080fd5b506103d6610db7565b6040516103e39190614474565b60405180910390f35b3480156103f857600080fd5b50610401610ddd565b60405161040e9190614474565b60405180910390f35b34801561042357600080fd5b5061043e60048036038101906104399190613c32565b610de5565b60405161044b91906146e7565b60405180910390f35b34801561046057600080fd5b5061047b60048036038101906104769190613d6b565b610f96565b005b34801561048957600080fd5b506104a4600480360381019061049f9190613d6b565b61118a565b005b3480156104b257600080fd5b506104bb6115ff565b6040516104c89190614776565b60405180910390f35b3480156104dd57600080fd5b506104f860048036038101906104f39190613d19565b61168d565b604051610509959493929190614656565b60405180910390f35b34801561051e57600080fd5b506105276116e3565b6040516105349190614a58565b60405180910390f35b34801561054957600080fd5b506105526116f3565b005b34801561056057600080fd5b5061056961177b565b6040516105769190614474565b60405180910390f35b34801561058b57600080fd5b506105a660048036038101906105a19190613bf6565b6117a5565b6040516105b39190614a58565b60405180910390f35b3480156105c857600080fd5b506105e360048036038101906105de9190613bba565b611805565b005b6105ed61181b565b005b3480156105fb57600080fd5b506106166004803603810190610611919061399e565b61198d565b6040516106239190614740565b60405180910390f35b34801561063857600080fd5b50610641611a21565b60405161064e91906146cb565b60405180910390f35b34801561066357600080fd5b5061066c611ab2565b6040516106799190614a58565b60405180910390f35b34801561068e57600080fd5b50610697611af9565b6040516106a491906146a9565b60405180910390f35b3480156106b957600080fd5b506106d460048036038101906106cf9190613a99565b611d60565b6040516106e1919061475b565b60405180910390f35b3480156106f657600080fd5b50610711600480360381019061070c9190613b2b565b611d76565b005b34801561071f57600080fd5b5061073a60048036038101906107359190613975565b611e17565b005b60008073ffffffffffffffffffffffffffffffffffffffff168373ffffffffffffffffffffffffffffffffffffffff1614156107ad576040517f08c379a00000000000000000000000000000000000000000000000000000000081526004016107a490614818565b60405180910390fd5b60008083815260200190815260200160002060008473ffffffffffffffffffffffffffffffffffffffff1673ffffffffffffffffffffffffffffffffffffffff16815260200190815260200160002054905092915050565b60007fd9b67a26000000000000000000000000000000000000000000000000000000007bffffffffffffffffffffffffffffffffffffffffffffffffffffffff1916827bffffffffffffffffffffffffffffffffffffffffffffffffffffffff191614806108d057507f0e89341c000000000000000000000000000000000000000000000000000000007bffffffffffffffffffffffffffffffffffffffffffffffffffffffff1916827bffffffffffffffffffffffffffffffffffffffffffffffffffffffff1916145b806108e057506108df82611f22565b5b9050919050565b6060600a6108f483611f8c565b604051602001610905929190614419565b6040516020818303038152906040529050919050565b6000610927308361073c565b9050919050565b6060600860003373ffffffffffffffffffffffffffffffffffffffff1673ffffffffffffffffffffffffffffffffffffffff1681526020019081526020016000208054806020026020016040519081016040528092919081815260200182805480156109b957602002820191906000526020600020905b8154815260200190600101908083116109a5575b5050505050905090565b6109cb61369c565b6109d361369c565b6000600190505b6008811015610a41576109ec8161091b565b828260088110610a25577f4e487b7100000000000000000000000000000000000000000000000000000000600052603260045260246000fd5b6020020181815250508080610a3990614eab565b9150506109da565b508091505090565b80600960003373ffffffffffffffffffffffffffffffffffffffff1673ffffffffffffffffffffffffffffffffffffffff168152602001908152602001600020541015610acb576040517f08c379a0000000000000000000000000000000000000000000000000000000008152600401610ac290614978565b60405180910390fd5b610ad53382612139565b80600960003373ffffffffffffffffffffffffffffffffffffffff1673ffffffffffffffffffffffffffffffffffffffff1681526020019081526020016000206000828254610b249190614d22565b9250508190555050565b610b366121ed565b73ffffffffffffffffffffffffffffffffffffffff168573ffffffffffffffffffffffffffffffffffffffff161480610b7c5750610b7b85610b766121ed565b61198d565b5b610bbb576040517f08c379a0000000000000000000000000000000000000000000000000000000008152600401610bb290614938565b60405180910390fd5b610bc885858585856121f5565b5050505050565b6060600060068054905067ffffffffffffffff811115610c18577f4e487b7100000000000000000000000000000000000000000000000000000000600052604160045260246000fd5b604051908082528060200260200182016040528015610c5157816020015b610c3e6136bf565b815260200190600190039081610c365790505b50905060005b600680549050811015610da157600060068281548110610ca0577f4e487b7100000000000000000000000000000000000000000000000000000000600052603260045260246000fd5b90600052602060002001549050600560008281526020019081526020016000206040518060a00160405290816000820160009054906101000a900473ffffffffffffffffffffffffffffffffffffffff1673ffffffffffffffffffffffffffffffffffffffff1673ffffffffffffffffffffffffffffffffffffffff168152602001600182015481526020016002820154815260200160038201548152602001600482015481525050838381518110610d82577f4e487b7100000000000000000000000000000000000000000000000000000000600052603260045260246000fd5b6020026020010181905250508080610d9990614eab565b915050610c57565b508091505090565b610db4303383612555565b50565b600b60009054906101000a900473ffffffffffffffffffffffffffffffffffffffff1681565b600033905090565b60608151835114610e2b576040517f08c379a0000000000000000000000000000000000000000000000000000000008152600401610e2290614a18565b60405180910390fd5b6000835167ffffffffffffffff811115610e6e577f4e487b7100000000000000000000000000000000000000000000000000000000600052604160045260246000fd5b604051908082528060200260200182016040528015610e9c5781602001602082028036833780820191505090505b50905060005b8451811015610f8b57610f35858281518110610ee7577f4e487b7100000000000000000000000000000000000000000000000000000000600052603260045260246000fd5b6020026020010151858381518110610f28577f4e487b7100000000000000000000000000000000000000000000000000000000600052603260045260246000fd5b602002602001015161073c565b828281518110610f6e577f4e487b7100000000000000000000000000000000000000000000000000000000600052603260045260246000fd5b60200260200101818152505080610f8490614eab565b9050610ea2565b508091505092915050565b6007821115610fda576040517f08c379a0000000000000000000000000000000000000000000000000000000008152600401610fd1906149b8565b60405180910390fd5b610fe3826125ce565b610fed338361264c565b600d600081548092919061100090614eab565b91905055506040518060a001604052803373ffffffffffffffffffffffffffffffffffffffff168152602001600d5481526020018381526020018281526020014281525060056000600d54815260200190815260200160002060008201518160000160006101000a81548173ffffffffffffffffffffffffffffffffffffffff021916908373ffffffffffffffffffffffffffffffffffffffff16021790555060208201518160010155604082015181600201556060820151816003015560808201518160040155905050600860003373ffffffffffffffffffffffffffffffffffffffff1673ffffffffffffffffffffffffffffffffffffffff168152602001908152602001600020600d549080600181540180825580915050600190039060005260206000200160009091909190915055600d543373ffffffffffffffffffffffffffffffffffffffff167fb8dc26799b764e6926951f7bb012dfdbd23920aaff0bb1966626cc1e19a42f24848460405161117e929190614a73565b60405180910390a35050565b6000600560008481526020019081526020016000206001015414156111e4576040517f08c379a00000000000000000000000000000000000000000000000000000000081526004016111db906149d8565b60405180910390fd5b6005600083815260200190815260200160002060000160009054906101000a900473ffffffffffffffffffffffffffffffffffffffff1673ffffffffffffffffffffffffffffffffffffffff163373ffffffffffffffffffffffffffffffffffffffff161415611289576040517f08c379a0000000000000000000000000000000000000000000000000000000008152600401611280906148f8565b60405180910390fd5b61129333826126e9565b600b60009054906101000a900473ffffffffffffffffffffffffffffffffffffffff1673ffffffffffffffffffffffffffffffffffffffff166323b872dd3330846040518463ffffffff1660e01b81526004016112f2939291906144f7565b602060405180830381600087803b15801561130c57600080fd5b505af1158015611320573d6000803e3d6000fd5b505050506040513d601f19601f820116820180604052508101906113449190613c9e565b5060006005600084815260200190815260200160002060020154905060006005600085815260200190815260200160002060000160009054906101000a900473ffffffffffffffffffffffffffffffffffffffff169050600760008273ffffffffffffffffffffffffffffffffffffffff1673ffffffffffffffffffffffffffffffffffffffff168152602001908152602001600020600083815260200190815260200160002060008154809291906113fc90614e1e565b919050555060056000858152602001908152602001600020600080820160006101000a81549073ffffffffffffffffffffffffffffffffffffffff02191690556001820160009055600282016000905560038201600090556004820160009055505061146881856127bb565b611473303384612555565b60648310156115285782600960008373ffffffffffffffffffffffffffffffffffffffff1673ffffffffffffffffffffffffffffffffffffffff16815260200190815260200160002060008282546114cb9190614c41565b92505081905550833373ffffffffffffffffffffffffffffffffffffffff167fe0f418bb0e86829c4c342c1375cd5aa8e417fc29b5f07fe835c88d26adb865e5848660405161151b929190614a73565b60405180910390a36115f9565b60006064600a856115399190614cc8565b6115439190614c97565b905080846115519190614d22565b600960008473ffffffffffffffffffffffffffffffffffffffff1673ffffffffffffffffffffffffffffffffffffffff168152602001908152602001600020600082825461159f9190614c41565b92505081905550843373ffffffffffffffffffffffffffffffffffffffff167fe0f418bb0e86829c4c342c1375cd5aa8e417fc29b5f07fe835c88d26adb865e585876040516115ef929190614a73565b60405180910390a3505b50505050565b600a805461160c90614e48565b80601f016020809104026020016040519081016040528092919081815260200182805461163890614e48565b80156116855780601f1061165a57610100808354040283529160200191611685565b820191906000526020600020905b81548152906001019060200180831161166857829003601f168201915b505050505081565b60056020528060005260406000206000915090508060000160009054906101000a900473ffffffffffffffffffffffffffffffffffffffff16908060010154908060020154908060030154908060040154905085565b60006116ee306129f6565b905090565b6116fb6121ed565b73ffffffffffffffffffffffffffffffffffffffff1661171961177b565b73ffffffffffffffffffffffffffffffffffffffff161461176f576040517f08c379a000000000000000000000000000000000000000000000000000000000815260040161176690614998565b60405180910390fd5b6117796000612aaa565b565b6000600360009054906101000a900473ffffffffffffffffffffffffffffffffffffffff16905090565b600080600760008573ffffffffffffffffffffffffffffffffffffffff1673ffffffffffffffffffffffffffffffffffffffff16815260200190815260200160002060008481526020019081526020016000205490508091505092915050565b6118176118106121ed565b8383612b70565b5050565b67016345785d8a00003414611865576040517f08c379a000000000000000000000000000000000000000000000000000000000815260040161185c906147f8565b60405180910390fd5b600061186f612cdd565b905060008160ff16101580156118885750603c8160ff16105b1561189d57611898600133612d52565b61198a565b603c8160ff16101580156118b4575060788160ff16105b156118c9576118c4600233612d52565b611989565b60788160ff16101580156118e0575060a08160ff16105b156118f5576118f0600333612d52565b611988565b60a08160ff161015801561190c575060c88160ff16105b156119215761191c600433612d52565b611987565b60c88160ff1610158015611938575060e08160ff16105b1561194d57611948600533612d52565b611986565b60e08160ff1610158015611964575060f88160ff16105b1561197957611974600633612d52565b611985565b611984600733612d52565b5b5b5b5b5b5b50565b6000600160008473ffffffffffffffffffffffffffffffffffffffff1673ffffffffffffffffffffffffffffffffffffffff16815260200190815260200160002060008373ffffffffffffffffffffffffffffffffffffffff1673ffffffffffffffffffffffffffffffffffffffff16815260200190815260200160002060009054906101000a900460ff16905092915050565b611a2961369c565b611a3161369c565b6000600190505b6008811015611aaa57600e600082815260200190815260200160002054828260088110611a8e577f4e487b7100000000000000000000000000000000000000000000000000000000600052603260045260246000fd5b6020020181815250508080611aa290614eab565b915050611a38565b508091505090565b6000600960003373ffffffffffffffffffffffffffffffffffffffff1673ffffffffffffffffffffffffffffffffffffffff16815260200190815260200160002054905090565b60606000600860003373ffffffffffffffffffffffffffffffffffffffff1673ffffffffffffffffffffffffffffffffffffffff168152602001908152602001600020805480602002602001604051908101604052809291908181526020018280548015611b8657602002820191906000526020600020905b815481526020019060010190808311611b72575b505050505090506000815167ffffffffffffffff811115611bd0577f4e487b7100000000000000000000000000000000000000000000000000000000600052604160045260246000fd5b604051908082528060200260200182016040528015611c0957816020015b611bf66136bf565b815260200190600190039081611bee5790505b50905060005b8251811015611d57576000838281518110611c53577f4e487b7100000000000000000000000000000000000000000000000000000000600052603260045260246000fd5b602002602001015190506000600560008381526020019081526020016000206040518060a00160405290816000820160009054906101000a900473ffffffffffffffffffffffffffffffffffffffff1673ffffffffffffffffffffffffffffffffffffffff1673ffffffffffffffffffffffffffffffffffffffff168152602001600182015481526020016002820154815260200160038201548152602001600482015481525050905080848481518110611d37577f4e487b7100000000000000000000000000000000000000000000000000000000600052603260045260246000fd5b602002602001018190525050508080611d4f90614eab565b915050611c0f565b50809250505090565b600063f23a6e6160e01b90509695505050505050565b611d7e6121ed565b73ffffffffffffffffffffffffffffffffffffffff168573ffffffffffffffffffffffffffffffffffffffff161480611dc45750611dc385611dbe6121ed565b61198d565b5b611e03576040517f08c379a0000000000000000000000000000000000000000000000000000000008152600401611dfa90614878565b60405180910390fd5b611e108585858585612f28565b5050505050565b611e1f6121ed565b73ffffffffffffffffffffffffffffffffffffffff16611e3d61177b565b73ffffffffffffffffffffffffffffffffffffffff1614611e93576040517f08c379a0000000000000000000000000000000000000000000000000000000008152600401611e8a90614998565b60405180910390fd5b600073ffffffffffffffffffffffffffffffffffffffff168173ffffffffffffffffffffffffffffffffffffffff161415611f03576040517f08c379a0000000000000000000000000000000000000000000000000000000008152600401611efa90614858565b60405180910390fd5b611f0c81612aaa565b50565b600080823b905060008111915050919050565b60007f01ffc9a7000000000000000000000000000000000000000000000000000000007bffffffffffffffffffffffffffffffffffffffffffffffffffffffff1916827bffffffffffffffffffffffffffffffffffffffffffffffffffffffff1916149050919050565b60606000821415611fd4576040518060400160405280600181526020017f30000000000000000000000000000000000000000000000000000000000000008152509050612134565b600082905060005b60008214612006578080611fef90614eab565b915050600a82611fff9190614c97565b9150611fdc565b60008167ffffffffffffffff811115612048577f4e487b7100000000000000000000000000000000000000000000000000000000600052604160045260246000fd5b6040519080825280601f01601f19166020018201604052801561207a5781602001600182028036833780820191505090505b5090505b6000851461212d576001826120939190614d22565b9150600a856120a29190614efe565b60306120ae9190614c41565b60f81b8183815181106120ea577f4e487b7100000000000000000000000000000000000000000000000000000000600052603260045260246000fd5b60200101907effffffffffffffffffffffffffffffffffffffffffffffffffffffffffffff1916908160001a905350600a856121269190614c97565b945061207e565b8093505050505b919050565b600b60009054906101000a900473ffffffffffffffffffffffffffffffffffffffff1673ffffffffffffffffffffffffffffffffffffffff1663a9059cbb83836040518363ffffffff1660e01b81526004016121969291906145f6565b602060405180830381600087803b1580156121b057600080fd5b505af11580156121c4573d6000803e3d6000fd5b505050506040513d601f19601f820116820180604052508101906121e89190613c9e565b505050565b600033905090565b8151835114612239576040517f08c379a000000000000000000000000000000000000000000000000000000000815260040161223090614a38565b60405180910390fd5b600073ffffffffffffffffffffffffffffffffffffffff168473ffffffffffffffffffffffffffffffffffffffff1614156122a9576040517f08c379a00000000000000000000000000000000000000000000000000000000081526004016122a090614918565b60405180910390fd5b60006122b36121ed565b90506122c38187878787876131aa565b60005b84518110156124c057600085828151811061230a577f4e487b7100000000000000000000000000000000000000000000000000000000600052603260045260246000fd5b60200260200101519050600085838151811061234f577f4e487b7100000000000000000000000000000000000000000000000000000000600052603260045260246000fd5b60200260200101519050600080600084815260200190815260200160002060008b73ffffffffffffffffffffffffffffffffffffffff1673ffffffffffffffffffffffffffffffffffffffff168152602001908152602001600020549050818110156123f0576040517f08c379a00000000000000000000000000000000000000000000000000000000081526004016123e790614958565b60405180910390fd5b81810360008085815260200190815260200160002060008c73ffffffffffffffffffffffffffffffffffffffff1673ffffffffffffffffffffffffffffffffffffffff168152602001908152602001600020819055508160008085815260200190815260200160002060008b73ffffffffffffffffffffffffffffffffffffffff1673ffffffffffffffffffffffffffffffffffffffff16815260200190815260200160002060008282546124a59190614c41565b92505081905550505050806124b990614eab565b90506122c6565b508473ffffffffffffffffffffffffffffffffffffffff168673ffffffffffffffffffffffffffffffffffffffff168273ffffffffffffffffffffffffffffffffffffffff167f4a39dc06d4c0dbc64b70af90fd698a233a518aa5d07e595d983b8c0526c8f7fb8787604051612537929190614709565b60405180910390a461254d8187878787876131b2565b505050505050565b3073ffffffffffffffffffffffffffffffffffffffff168373ffffffffffffffffffffffffffffffffffffffff1614156125ab576125a6308383600160405180602001604052806000815250612f28565b6125c9565b6125c8838383600160405180602001604052806000815250611d76565b5b505050565b6125d83382613399565b6125e3333083612555565b600760003373ffffffffffffffffffffffffffffffffffffffff1673ffffffffffffffffffffffffffffffffffffffff1681526020019081526020016000206000828152602001908152602001600020600081548092919061264490614eab565b919050555050565b6000600760008473ffffffffffffffffffffffffffffffffffffffff1673ffffffffffffffffffffffffffffffffffffffff1681526020019081526020016000206000838152602001908152602001600020549050600081116126e4576040517f08c379a00000000000000000000000000000000000000000000000000000000081526004016126db90614838565b60405180910390fd5b505050565b60006126f4836129f6565b90503073ffffffffffffffffffffffffffffffffffffffff168373ffffffffffffffffffffffffffffffffffffffff161415612772578181101561276d576040517f08c379a0000000000000000000000000000000000000000000000000000000008152600401612764906147d8565b60405180910390fd5b6127b6565b818110156127b5576040517f08c379a00000000000000000000000000000000000000000000000000000000081526004016127ac906148d8565b60405180910390fd5b5b505050565b6000600860008473ffffffffffffffffffffffffffffffffffffffff1673ffffffffffffffffffffffffffffffffffffffff1681526020019081526020016000209050600080600183805490506128129190614d22565b905060005b83805490508110156128855783818154811061285c577f4e487b7100000000000000000000000000000000000000000000000000000000600052603260045260246000fd5b9060005260206000200154851415612872578092505b808061287d90614eab565b915050612817565b5060008382815481106128c1577f4e487b7100000000000000000000000000000000000000000000000000000000600052603260045260246000fd5b90600052602060002001549050838381548110612907577f4e487b7100000000000000000000000000000000000000000000000000000000600052603260045260246000fd5b906000526020600020015484838154811061294b577f4e487b7100000000000000000000000000000000000000000000000000000000600052603260045260246000fd5b906000526020600020018190555080848481548110612993577f4e487b7100000000000000000000000000000000000000000000000000000000600052603260045260246000fd5b9060005260206000200181905550838054806129d8577f4e487b7100000000000000000000000000000000000000000000000000000000600052603160045260246000fd5b60019003818190600052602060002001600090559055505050505050565b6000600b60009054906101000a900473ffffffffffffffffffffffffffffffffffffffff1673ffffffffffffffffffffffffffffffffffffffff166370a08231836040518263ffffffff1660e01b8152600401612a539190614474565b60206040518083038186803b158015612a6b57600080fd5b505afa158015612a7f573d6000803e3d6000fd5b505050506040513d601f19601f82011682018060405250810190612aa39190613d42565b9050919050565b6000600360009054906101000a900473ffffffffffffffffffffffffffffffffffffffff16905081600360006101000a81548173ffffffffffffffffffffffffffffffffffffffff021916908373ffffffffffffffffffffffffffffffffffffffff1602179055508173ffffffffffffffffffffffffffffffffffffffff168173ffffffffffffffffffffffffffffffffffffffff167f8be0079c531659141344cd1fd0a4f28419497f9722a3daafe3b4186f6b6457e060405160405180910390a35050565b8173ffffffffffffffffffffffffffffffffffffffff168373ffffffffffffffffffffffffffffffffffffffff161415612bdf576040517f08c379a0000000000000000000000000000000000000000000000000000000008152600401612bd6906149f8565b60405180910390fd5b80600160008573ffffffffffffffffffffffffffffffffffffffff1673ffffffffffffffffffffffffffffffffffffffff16815260200190815260200160002060008473ffffffffffffffffffffffffffffffffffffffff1673ffffffffffffffffffffffffffffffffffffffff16815260200190815260200160002060006101000a81548160ff0219169083151502179055508173ffffffffffffffffffffffffffffffffffffffff168373ffffffffffffffffffffffffffffffffffffffff167f17307eab39ab6107e8899845ad3d59bd9653f200f220920489ca2b5937696c3183604051612cd09190614740565b60405180910390a3505050565b6000804442604051602001612cf3929190614448565b60405160208183030381529060405280519060200120905080601f60208110612d45577f4e487b7100000000000000000000000000000000000000000000000000000000600052603260045260246000fd5b1a60f81b60f81c91505090565b60088210612d95576040517f08c379a0000000000000000000000000000000000000000000000000000000008152600401612d8c90614898565b60405180910390fd5b6000612da1308461073c565b90506000811115612e0f57612db7308385612555565b8173ffffffffffffffffffffffffffffffffffffffff167f7d2d5ed46e76d1498cb4d2969533efe5bd10438c2678a278cf96d2666b45109730856000604051612e029392919061461f565b60405180910390a2612f22565b6000612e1a306129f6565b905060006004600086815260200190815260200160002054905060006064826064612e459190614d22565b84612e509190614cc8565b612e5a9190614c97565b90506000811415612ec1578473ffffffffffffffffffffffffffffffffffffffff167f7d2d5ed46e76d1498cb4d2969533efe5bd10438c2678a278cf96d2666b45109730600080604051612eb093929190614588565b60405180910390a250505050612f24565b612ecb8582612139565b8473ffffffffffffffffffffffffffffffffffffffff167f7d2d5ed46e76d1498cb4d2969533efe5bd10438c2678a278cf96d2666b45109730600084604051612f16939291906145bf565b60405180910390a25050505b505b5050565b600073ffffffffffffffffffffffffffffffffffffffff168473ffffffffffffffffffffffffffffffffffffffff161415612f98576040517f08c379a0000000000000000000000000000000000000000000000000000000008152600401612f8f90614918565b60405180910390fd5b6000612fa26121ed565b9050612fc2818787612fb3886133ef565b612fbc886133ef565b876131aa565b600080600086815260200190815260200160002060008873ffffffffffffffffffffffffffffffffffffffff1673ffffffffffffffffffffffffffffffffffffffff16815260200190815260200160002054905083811015613059576040517f08c379a000000000000000000000000000000000000000000000000000000000815260040161305090614958565b60405180910390fd5b83810360008087815260200190815260200160002060008973ffffffffffffffffffffffffffffffffffffffff1673ffffffffffffffffffffffffffffffffffffffff168152602001908152602001600020819055508360008087815260200190815260200160002060008873ffffffffffffffffffffffffffffffffffffffff1673ffffffffffffffffffffffffffffffffffffffff168152602001908152602001600020600082825461310e9190614c41565b925050819055508573ffffffffffffffffffffffffffffffffffffffff168773ffffffffffffffffffffffffffffffffffffffff168373ffffffffffffffffffffffffffffffffffffffff167fc3d58168c5ae7397731d063d5bbf3d657854427343f4c083240f7aacaa2d0f62888860405161318b929190614a73565b60405180910390a46131a18288888888886134b5565b50505050505050565b505050505050565b6131d18473ffffffffffffffffffffffffffffffffffffffff16611f0f565b15613391578373ffffffffffffffffffffffffffffffffffffffff1663bc197c8187878686866040518663ffffffff1660e01b815260040161321795949392919061448f565b602060405180830381600087803b15801561323157600080fd5b505af192505050801561326257506040513d601f19601f8201168201806040525081019061325f9190613cf0565b60015b6133085761326e614feb565b806308c379a014156132cb57506132836155c8565b8061328e57506132cd565b806040517f08c379a00000000000000000000000000000000000000000000000000000000081526004016132c29190614776565b60405180910390fd5b505b6040517f08c379a00000000000000000000000000000000000000000000000000000000081526004016132ff90614798565b60405180910390fd5b63bc197c8160e01b7bffffffffffffffffffffffffffffffffffffffffffffffffffffffff1916817bffffffffffffffffffffffffffffffffffffffffffffffffffffffff19161461338f576040517f08c379a0000000000000000000000000000000000000000000000000000000008152600401613386906147b8565b60405180910390fd5b505b505050505050565b60006133a5838361073c565b9050600081116133ea576040517f08c379a00000000000000000000000000000000000000000000000000000000081526004016133e1906148b8565b60405180910390fd5b505050565b60606000600167ffffffffffffffff811115613434577f4e487b7100000000000000000000000000000000000000000000000000000000600052604160045260246000fd5b6040519080825280602002602001820160405280156134625781602001602082028036833780820191505090505b50905082816000815181106134a0577f4e487b7100000000000000000000000000000000000000000000000000000000600052603260045260246000fd5b60200260200101818152505080915050919050565b6134d48473ffffffffffffffffffffffffffffffffffffffff16611f0f565b15613694578373ffffffffffffffffffffffffffffffffffffffff1663f23a6e6187878686866040518663ffffffff1660e01b815260040161351a95949392919061452e565b602060405180830381600087803b15801561353457600080fd5b505af192505050801561356557506040513d601f19601f820116820180604052508101906135629190613cf0565b60015b61360b57613571614feb565b806308c379a014156135ce57506135866155c8565b8061359157506135d0565b806040517f08c379a00000000000000000000000000000000000000000000000000000000081526004016135c59190614776565b60405180910390fd5b505b6040517f08c379a000000000000000000000000000000000000000000000000000000000815260040161360290614798565b60405180910390fd5b63f23a6e6160e01b7bffffffffffffffffffffffffffffffffffffffffffffffffffffffff1916817bffffffffffffffffffffffffffffffffffffffffffffffffffffffff191614613692576040517f08c379a0000000000000000000000000000000000000000000000000000000008152600401613689906147b8565b60405180910390fd5b505b505050505050565b604051806101000160405280600890602082028036833780820191505090505090565b6040518060a00160405280600073ffffffffffffffffffffffffffffffffffffffff168152602001600081526020016000815260200160008152602001600081525090565b600061371761371284614ac1565b614a9c565b9050808382526020820190508285602086028201111561373657600080fd5b60005b85811015613766578161374c888261381a565b845260208401935060208301925050600181019050613739565b5050509392505050565b600061378361377e84614aed565b614a9c565b905080838252602082019050828560208602820111156137a257600080fd5b60005b858110156137d257816137b8888261394b565b8452602084019350602083019250506001810190506137a5565b5050509392505050565b60006137ef6137ea84614b19565b614a9c565b90508281526020810184848401111561380757600080fd5b613812848285614ddc565b509392505050565b6000813590506138298161565e565b92915050565b600082601f83011261384057600080fd5b8135613850848260208601613704565b91505092915050565b600082601f83011261386a57600080fd5b813561387a848260208601613770565b91505092915050565b60008135905061389281615675565b92915050565b6000815190506138a781615675565b92915050565b6000813590506138bc8161568c565b92915050565b6000815190506138d18161568c565b92915050565b60008083601f8401126138e957600080fd5b8235905067ffffffffffffffff81111561390257600080fd5b60208301915083600182028301111561391a57600080fd5b9250929050565b600082601f83011261393257600080fd5b81356139428482602086016137dc565b91505092915050565b60008135905061395a816156a3565b92915050565b60008151905061396f816156a3565b92915050565b60006020828403121561398757600080fd5b60006139958482850161381a565b91505092915050565b600080604083850312156139b157600080fd5b60006139bf8582860161381a565b92505060206139d08582860161381a565b9150509250929050565b600080600080600060a086880312156139f257600080fd5b6000613a008882890161381a565b9550506020613a118882890161381a565b945050604086013567ffffffffffffffff811115613a2e57600080fd5b613a3a88828901613859565b935050606086013567ffffffffffffffff811115613a5757600080fd5b613a6388828901613859565b925050608086013567ffffffffffffffff811115613a8057600080fd5b613a8c88828901613921565b9150509295509295909350565b60008060008060008060a08789031215613ab257600080fd5b6000613ac089828a0161381a565b9650506020613ad189828a0161381a565b9550506040613ae289828a0161394b565b9450506060613af389828a0161394b565b935050608087013567ffffffffffffffff811115613b1057600080fd5b613b1c89828a016138d7565b92509250509295509295509295565b600080600080600060a08688031215613b4357600080fd5b6000613b518882890161381a565b9550506020613b628882890161381a565b9450506040613b738882890161394b565b9350506060613b848882890161394b565b925050608086013567ffffffffffffffff811115613ba157600080fd5b613bad88828901613921565b9150509295509295909350565b60008060408385031215613bcd57600080fd5b6000613bdb8582860161381a565b9250506020613bec85828601613883565b9150509250929050565b60008060408385031215613c0957600080fd5b6000613c178582860161381a565b9250506020613c288582860161394b565b9150509250929050565b60008060408385031215613c4557600080fd5b600083013567ffffffffffffffff811115613c5f57600080fd5b613c6b8582860161382f565b925050602083013567ffffffffffffffff811115613c8857600080fd5b613c9485828601613859565b9150509250929050565b600060208284031215613cb057600080fd5b6000613cbe84828501613898565b91505092915050565b600060208284031215613cd957600080fd5b6000613ce7848285016138ad565b91505092915050565b600060208284031215613d0257600080fd5b6000613d10848285016138c2565b91505092915050565b600060208284031215613d2b57600080fd5b6000613d398482850161394b565b91505092915050565b600060208284031215613d5457600080fd5b6000613d6284828501613960565b91505092915050565b60008060408385031215613d7e57600080fd5b6000613d8c8582860161394b565b9250506020613d9d8582860161394b565b9150509250929050565b6000613db3838361437c565b60a08301905092915050565b6000613dcb83836143e4565b60208301905092915050565b613de081614d56565b82525050565b613def81614d56565b82525050565b6000613e0082614b89565b613e0a8185614be7565b9350613e1583614b4a565b8060005b83811015613e46578151613e2d8882613da7565b9750613e3883614bc0565b925050600181019050613e19565b5085935050505092915050565b613e5c81614b94565b613e668184614bf8565b9250613e7182614b5a565b8060005b83811015613ea2578151613e898782613dbf565b9650613e9483614bcd565b925050600181019050613e75565b505050505050565b6000613eb582614b9f565b613ebf8185614c03565b9350613eca83614b64565b8060005b83811015613efb578151613ee28882613dbf565b9750613eed83614bda565b925050600181019050613ece565b5085935050505092915050565b613f1181614d68565b82525050565b613f2081614d74565b82525050565b6000613f3182614baa565b613f3b8185614c14565b9350613f4b818560208601614deb565b613f548161500d565b840191505092915050565b613f6881614dca565b82525050565b6000613f7982614bb5565b613f838185614c25565b9350613f93818560208601614deb565b613f9c8161500d565b840191505092915050565b6000613fb282614bb5565b613fbc8185614c36565b9350613fcc818560208601614deb565b80840191505092915050565b60008154613fe581614e48565b613fef8186614c36565b9450600182166000811461400a576001811461401b5761404e565b60ff1983168652818601935061404e565b61402485614b74565b60005b8381101561404657815481890152600182019150602081019050614027565b838801955050505b50505092915050565b6000614064603483614c25565b915061406f8261502b565b604082019050919050565b6000614087602883614c25565b91506140928261507a565b604082019050919050565b60006140aa602c83614c25565b91506140b5826150c9565b604082019050919050565b60006140cd601683614c25565b91506140d882615118565b602082019050919050565b60006140f0602b83614c25565b91506140fb82615141565b604082019050919050565b6000614113601683614c25565b915061411e82615190565b602082019050919050565b6000614136602683614c25565b9150614141826151b9565b604082019050919050565b6000614159602983614c25565b915061416482615208565b604082019050919050565b600061417c601c83614c25565b915061418782615257565b602082019050919050565b600061419f601683614c25565b91506141aa82615280565b602082019050919050565b60006141c2601283614c25565b91506141cd826152a9565b602082019050919050565b60006141e5601683614c25565b91506141f0826152d2565b602082019050919050565b6000614208602583614c25565b9150614213826152fb565b604082019050919050565b600061422b603283614c25565b91506142368261534a565b604082019050919050565b600061424e602a83614c25565b915061425982615399565b604082019050919050565b6000614271603f83614c25565b915061427c826153e8565b604082019050919050565b6000614294600583614c36565b915061429f82615437565b600582019050919050565b60006142b7602083614c25565b91506142c282615460565b602082019050919050565b60006142da601a83614c25565b91506142e582615489565b602082019050919050565b60006142fd601683614c25565b9150614308826154b2565b602082019050919050565b6000614320602983614c25565b915061432b826154db565b604082019050919050565b6000614343602983614c25565b915061434e8261552a565b604082019050919050565b6000614366602883614c25565b915061437182615579565b604082019050919050565b60a0820160008201516143926000850182613dd7565b5060208201516143a560208501826143e4565b5060408201516143b860408501826143e4565b5060608201516143cb60608501826143e4565b5060808201516143de60808501826143e4565b50505050565b6143ed81614dc0565b82525050565b6143fc81614dc0565b82525050565b61441361440e82614dc0565b614ef4565b82525050565b60006144258285613fd8565b91506144318284613fa7565b915061443c82614287565b91508190509392505050565b60006144548285614402565b6020820191506144648284614402565b6020820191508190509392505050565b60006020820190506144896000830184613de6565b92915050565b600060a0820190506144a46000830188613de6565b6144b16020830187613de6565b81810360408301526144c38186613eaa565b905081810360608301526144d78185613eaa565b905081810360808301526144eb8184613f26565b90509695505050505050565b600060608201905061450c6000830186613de6565b6145196020830185613de6565b61452660408301846143f3565b949350505050565b600060a0820190506145436000830188613de6565b6145506020830187613de6565b61455d60408301866143f3565b61456a60608301856143f3565b818103608083015261457c8184613f26565b90509695505050505050565b600060608201905061459d6000830186613de6565b6145aa6020830185613f5f565b6145b76040830184613f5f565b949350505050565b60006060820190506145d46000830186613de6565b6145e16020830185613f5f565b6145ee60408301846143f3565b949350505050565b600060408201905061460b6000830185613de6565b61461860208301846143f3565b9392505050565b60006060820190506146346000830186613de6565b61464160208301856143f3565b61464e6040830184613f5f565b949350505050565b600060a08201905061466b6000830188613de6565b61467860208301876143f3565b61468560408301866143f3565b61469260608301856143f3565b61469f60808301846143f3565b9695505050505050565b600060208201905081810360008301526146c38184613df5565b905092915050565b6000610100820190506146e16000830184613e53565b92915050565b600060208201905081810360008301526147018184613eaa565b905092915050565b600060408201905081810360008301526147238185613eaa565b905081810360208301526147378184613eaa565b90509392505050565b60006020820190506147556000830184613f08565b92915050565b60006020820190506147706000830184613f17565b92915050565b600060208201905081810360008301526147908184613f6e565b905092915050565b600060208201905081810360008301526147b181614057565b9050919050565b600060208201905081810360008301526147d18161407a565b9050919050565b600060208201905081810360008301526147f18161409d565b9050919050565b60006020820190508181036000830152614811816140c0565b9050919050565b60006020820190508181036000830152614831816140e3565b9050919050565b6000602082019050818103600083015261485181614106565b9050919050565b6000602082019050818103600083015261487181614129565b9050919050565b600060208201905081810360008301526148918161414c565b9050919050565b600060208201905081810360008301526148b18161416f565b9050919050565b600060208201905081810360008301526148d181614192565b9050919050565b600060208201905081810360008301526148f1816141b5565b9050919050565b60006020820190508181036000830152614911816141d8565b9050919050565b60006020820190508181036000830152614931816141fb565b9050919050565b600060208201905081810360008301526149518161421e565b9050919050565b6000602082019050818103600083015261497181614241565b9050919050565b6000602082019050818103600083015261499181614264565b9050919050565b600060208201905081810360008301526149b1816142aa565b9050919050565b600060208201905081810360008301526149d1816142cd565b9050919050565b600060208201905081810360008301526149f1816142f0565b9050919050565b60006020820190508181036000830152614a1181614313565b9050919050565b60006020820190508181036000830152614a3181614336565b9050919050565b60006020820190508181036000830152614a5181614359565b9050919050565b6000602082019050614a6d60008301846143f3565b92915050565b6000604082019050614a8860008301856143f3565b614a9560208301846143f3565b9392505050565b6000614aa6614ab7565b9050614ab28282614e7a565b919050565b6000604051905090565b600067ffffffffffffffff821115614adc57614adb614fbc565b5b602082029050602081019050919050565b600067ffffffffffffffff821115614b0857614b07614fbc565b5b602082029050602081019050919050565b600067ffffffffffffffff821115614b3457614b33614fbc565b5b614b3d8261500d565b9050602081019050919050565b6000819050602082019050919050565b6000819050919050565b6000819050602082019050919050565b60008190508160005260206000209050919050565b600081519050919050565b600060089050919050565b600081519050919050565b600081519050919050565b600081519050919050565b6000602082019050919050565b6000602082019050919050565b6000602082019050919050565b600082825260208201905092915050565b600081905092915050565b600082825260208201905092915050565b600082825260208201905092915050565b600082825260208201905092915050565b600081905092915050565b6000614c4c82614dc0565b9150614c5783614dc0565b9250827fffffffffffffffffffffffffffffffffffffffffffffffffffffffffffffffff03821115614c8c57614c8b614f2f565b5b828201905092915050565b6000614ca282614dc0565b9150614cad83614dc0565b925082614cbd57614cbc614f5e565b5b828204905092915050565b6000614cd382614dc0565b9150614cde83614dc0565b9250817fffffffffffffffffffffffffffffffffffffffffffffffffffffffffffffffff0483118215151615614d1757614d16614f2f565b5b828202905092915050565b6000614d2d82614dc0565b9150614d3883614dc0565b925082821015614d4b57614d4a614f2f565b5b828203905092915050565b6000614d6182614da0565b9050919050565b60008115159050919050565b60007fffffffff0000000000000000000000000000000000000000000000000000000082169050919050565b600073ffffffffffffffffffffffffffffffffffffffff82169050919050565b6000819050919050565b6000614dd582614dc0565b9050919050565b82818337600083830152505050565b60005b83811015614e09578082015181840152602081019050614dee565b83811115614e18576000848401525b50505050565b6000614e2982614dc0565b91506000821415614e3d57614e3c614f2f565b5b600182039050919050565b60006002820490506001821680614e6057607f821691505b60208210811415614e7457614e73614f8d565b5b50919050565b614e838261500d565b810181811067ffffffffffffffff82111715614ea257614ea1614fbc565b5b80604052505050565b6000614eb682614dc0565b91507fffffffffffffffffffffffffffffffffffffffffffffffffffffffffffffffff821415614ee957614ee8614f2f565b5b600182019050919050565b6000819050919050565b6000614f0982614dc0565b9150614f1483614dc0565b925082614f2457614f23614f5e565b5b828206905092915050565b7f4e487b7100000000000000000000000000000000000000000000000000000000600052601160045260246000fd5b7f4e487b7100000000000000000000000000000000000000000000000000000000600052601260045260246000fd5b7f4e487b7100000000000000000000000000000000000000000000000000000000600052602260045260246000fd5b7f4e487b7100000000000000000000000000000000000000000000000000000000600052604160045260246000fd5b600060033d111561500a5760046000803e61500760005161501e565b90505b90565b6000601f19601f8301169050919050565b60008160e01c9050919050565b7f455243313135353a207472616e7366657220746f206e6f6e204552433131353560008201527f526563656976657220696d706c656d656e746572000000000000000000000000602082015250565b7f455243313135353a204552433131353552656365697665722072656a6563746560008201527f6420746f6b656e73000000000000000000000000000000000000000000000000602082015250565b7f4e6f7420656e6f7567682062616c616e636520746f2065786368616e6765206260008201527f6f6e6420746f20746f6b656e0000000000000000000000000000000000000000602082015250565b7f796f75206d7573742070617920302e31204d4154494300000000000000000000600082015250565b7f455243313135353a2062616c616e636520717565727920666f7220746865207a60008201527f65726f2061646472657373000000000000000000000000000000000000000000602082015250565b7f4e6f7420656e6f756768206e6674206465706f73697400000000000000000000600082015250565b7f4f776e61626c653a206e6577206f776e657220697320746865207a65726f206160008201527f6464726573730000000000000000000000000000000000000000000000000000602082015250565b7f455243313135353a2063616c6c6572206973206e6f74206f776e6572206e6f7260008201527f20617070726f7665640000000000000000000000000000000000000000000000602082015250565b7f746f6b656e4964206d757374206265206c6f776572207468616e203800000000600082015250565b7f6e6f7420656e6f756768206e66742062616c616e636500000000000000000000600082015250565b7f4e6f7420656e6f7567682062616c616e63650000000000000000000000000000600082015250565b7f796f752063616e27742062757920796f7572206e667400000000000000000000600082015250565b7f455243313135353a207472616e7366657220746f20746865207a65726f20616460008201527f6472657373000000000000000000000000000000000000000000000000000000602082015250565b7f455243313135353a207472616e736665722063616c6c6572206973206e6f742060008201527f6f776e6572206e6f7220617070726f7665640000000000000000000000000000602082015250565b7f455243313135353a20696e73756666696369656e742062616c616e636520666f60008201527f72207472616e7366657200000000000000000000000000000000000000000000602082015250565b7f5468652077697468647261776c20616d6f756e7420636f756c646e277420626560008201527f20686967686572207468616e20796f757220746f74616c2062616c616e636500602082015250565b7f2e6a736f6e000000000000000000000000000000000000000000000000000000600082015250565b7f4f776e61626c653a2063616c6c6572206973206e6f7420746865206f776e6572600082015250565b7f6e66744964206d757374206265206c6f776572207468616e2038000000000000600082015250565b7f6f72646572496420646f6573206e6f7420657869737400000000000000000000600082015250565b7f455243313135353a2073657474696e6720617070726f76616c2073746174757360008201527f20666f722073656c660000000000000000000000000000000000000000000000602082015250565b7f455243313135353a206163636f756e747320616e6420696473206c656e67746860008201527f206d69736d617463680000000000000000000000000000000000000000000000602082015250565b7f455243313135353a2069647320616e6420616d6f756e7473206c656e6774682060008201527f6d69736d61746368000000000000000000000000000000000000000000000000602082015250565b600060443d10156155d85761565b565b6155e0614ab7565b60043d036004823e80513d602482011167ffffffffffffffff8211171561560857505061565b565b808201805167ffffffffffffffff811115615626575050505061565b565b80602083010160043d03850181111561564357505050505061565b565b61565282602001850186614e7a565b82955050505050505b90565b61566781614d56565b811461567257600080fd5b50565b61567e81614d68565b811461568957600080fd5b50565b61569581614d74565b81146156a057600080fd5b50565b6156ac81614dc0565b81146156b757600080fd5b5056fea26469706673582212203c14ea9ca3514c775762f1206101f4081dc8780076da06aa2eb85be05f70404a64736f6c63430008040033",
  "linkReferences": {},
  "deployedLinkReferences": {}
}